{
  "_format": "hh-sol-artifact-1",
  "contractName": "Staking",
  "sourceName": "contracts/Staking.sol",
  "abi": [
    {
      "anonymous": false,
      "inputs": [
        {
          "indexed": false,
          "internalType": "address",
          "name": "previousAdmin",
          "type": "address"
        },
        {
          "indexed": false,
          "internalType": "address",
          "name": "newAdmin",
          "type": "address"
        }
      ],
      "name": "AdminChanged",
      "type": "event"
    },
    {
      "anonymous": false,
      "inputs": [
        {
          "indexed": true,
          "internalType": "address",
          "name": "beacon",
          "type": "address"
        }
      ],
      "name": "BeaconUpgraded",
      "type": "event"
    },
    {
      "anonymous": false,
      "inputs": [
        {
          "indexed": true,
          "internalType": "address",
          "name": "from",
          "type": "address"
        },
        {
          "indexed": true,
          "internalType": "uint256",
          "name": "value",
          "type": "uint256"
        }
      ],
      "name": "BountyAdded",
      "type": "event"
    },
    {
      "anonymous": false,
      "inputs": [
        {
          "indexed": true,
          "internalType": "address",
          "name": "previousOwner",
          "type": "address"
        },
        {
          "indexed": true,
          "internalType": "address",
          "name": "newOwner",
          "type": "address"
        }
      ],
      "name": "OwnershipTransferred",
      "type": "event"
    },
    {
      "anonymous": false,
      "inputs": [
        {
          "indexed": true,
          "internalType": "address",
          "name": "implementation",
          "type": "address"
        }
      ],
      "name": "Upgraded",
      "type": "event"
    },
    {
      "inputs": [
        {
          "internalType": "address",
          "name": "account",
          "type": "address"
        }
      ],
      "name": "addAdmin",
      "outputs": [],
      "stateMutability": "nonpayable",
      "type": "function"
    },
    {
      "inputs": [
        {
          "internalType": "uint256",
          "name": "amount",
          "type": "uint256"
        }
      ],
      "name": "addBounty",
      "outputs": [],
      "stateMutability": "nonpayable",
      "type": "function"
    },
    {
      "inputs": [],
      "name": "allowance",
      "outputs": [
        {
          "internalType": "uint256",
          "name": "",
          "type": "uint256"
        }
      ],
      "stateMutability": "view",
      "type": "function"
    },
    {
      "inputs": [
        {
          "internalType": "uint256",
          "name": "_tokenAmount",
          "type": "uint256"
        }
      ],
      "name": "approve",
      "outputs": [
        {
          "internalType": "bool",
          "name": "",
          "type": "bool"
        }
      ],
      "stateMutability": "nonpayable",
      "type": "function"
    },
    {
      "inputs": [
        {
          "internalType": "address",
          "name": "owner",
          "type": "address"
        }
      ],
      "name": "balanceOf",
      "outputs": [
        {
          "internalType": "uint256",
          "name": "",
          "type": "uint256"
        }
      ],
      "stateMutability": "view",
      "type": "function"
    },
    {
      "inputs": [
        {
          "internalType": "uint256",
          "name": "epochSeconds",
          "type": "uint256"
        }
      ],
      "name": "getCurrentBounty",
      "outputs": [
        {
          "internalType": "uint256",
          "name": "",
          "type": "uint256"
        }
      ],
      "stateMutability": "view",
      "type": "function"
    },
    {
      "inputs": [
        {
          "internalType": "uint256",
          "name": "epochSeconds",
          "type": "uint256"
        }
      ],
      "name": "getCurrentPeriod",
      "outputs": [
        {
          "internalType": "uint256",
          "name": "",
          "type": "uint256"
        }
      ],
      "stateMutability": "view",
      "type": "function"
    },
    {
      "inputs": [
        {
          "internalType": "uint256",
          "name": "epochSeconds",
          "type": "uint256"
        }
      ],
      "name": "getCurrentPeriodDay",
      "outputs": [
        {
          "internalType": "uint256",
          "name": "",
          "type": "uint256"
        }
      ],
      "stateMutability": "view",
      "type": "function"
    },
    {
      "inputs": [
        {
          "internalType": "contract IERC20Stakeable",
          "name": "_token",
          "type": "address"
        }
      ],
      "name": "initialize",
      "outputs": [],
      "stateMutability": "nonpayable",
      "type": "function"
    },
    {
      "inputs": [
        {
          "internalType": "address",
          "name": "account",
          "type": "address"
        }
      ],
      "name": "lockoutStatus",
      "outputs": [
        {
          "internalType": "uint256",
          "name": "",
          "type": "uint256"
        }
      ],
      "stateMutability": "view",
      "type": "function"
    },
    {
      "inputs": [],
      "name": "owner",
      "outputs": [
        {
          "internalType": "address",
          "name": "",
          "type": "address"
        }
      ],
      "stateMutability": "view",
      "type": "function"
    },
    {
      "inputs": [],
      "name": "periodRange",
      "outputs": [
        {
          "internalType": "uint256",
          "name": "",
          "type": "uint256"
        }
      ],
      "stateMutability": "view",
      "type": "function"
    },
    {
      "inputs": [],
      "name": "proxiableUUID",
      "outputs": [
        {
          "internalType": "bytes32",
          "name": "",
          "type": "bytes32"
        }
      ],
      "stateMutability": "view",
      "type": "function"
    },
    {
      "inputs": [
        {
          "internalType": "address",
          "name": "account",
          "type": "address"
        }
      ],
      "name": "removeAdmin",
      "outputs": [],
      "stateMutability": "nonpayable",
      "type": "function"
    },
    {
      "inputs": [],
      "name": "renounceOwnership",
      "outputs": [],
      "stateMutability": "nonpayable",
      "type": "function"
    },
    {
      "inputs": [
        {
          "internalType": "address",
          "name": "owner",
          "type": "address"
        },
        {
          "internalType": "uint256",
          "name": "epochSeconds",
          "type": "uint256"
        }
      ],
      "name": "rewardsBalanceOf",
      "outputs": [
        {
          "internalType": "uint256",
          "name": "",
          "type": "uint256"
        }
      ],
      "stateMutability": "view",
      "type": "function"
    },
    {
      "inputs": [
        {
          "internalType": "uint256",
          "name": "dayRange",
          "type": "uint256"
        }
      ],
      "name": "setPeriodRange",
      "outputs": [],
      "stateMutability": "nonpayable",
      "type": "function"
    },
    {
      "inputs": [
        {
          "internalType": "address",
          "name": "account",
          "type": "address"
        }
      ],
      "name": "setRootAdmin",
      "outputs": [],
      "stateMutability": "nonpayable",
      "type": "function"
    },
    {
      "inputs": [
        {
          "internalType": "uint256",
          "name": "amount",
          "type": "uint256"
        }
      ],
      "name": "stake",
      "outputs": [],
      "stateMutability": "nonpayable",
      "type": "function"
    },
    {
      "inputs": [
        {
          "internalType": "address",
          "name": "owner",
          "type": "address"
        }
      ],
      "name": "stakeBalanceOf",
      "outputs": [
        {
          "internalType": "uint256",
          "name": "",
          "type": "uint256"
        }
      ],
      "stateMutability": "view",
      "type": "function"
    },
    {
      "inputs": [],
      "name": "token",
      "outputs": [
        {
          "internalType": "contract IERC20Stakeable",
          "name": "",
          "type": "address"
        }
      ],
      "stateMutability": "view",
      "type": "function"
    },
    {
      "inputs": [
        {
          "internalType": "address",
          "name": "newOwner",
          "type": "address"
        }
      ],
      "name": "transferOwnership",
      "outputs": [],
      "stateMutability": "nonpayable",
      "type": "function"
    },
    {
      "inputs": [
        {
          "internalType": "address",
          "name": "account",
          "type": "address"
        }
      ],
      "name": "unlockAccount",
      "outputs": [],
      "stateMutability": "nonpayable",
      "type": "function"
    },
    {
      "inputs": [
        {
          "internalType": "uint256",
          "name": "amount",
          "type": "uint256"
        }
      ],
      "name": "unstake",
      "outputs": [],
      "stateMutability": "nonpayable",
      "type": "function"
    },
    {
      "inputs": [
        {
          "internalType": "address",
          "name": "newImplementation",
          "type": "address"
        }
      ],
      "name": "upgradeTo",
      "outputs": [],
      "stateMutability": "nonpayable",
      "type": "function"
    },
    {
      "inputs": [
        {
          "internalType": "address",
          "name": "newImplementation",
          "type": "address"
        },
        {
          "internalType": "bytes",
          "name": "data",
          "type": "bytes"
        }
      ],
      "name": "upgradeToAndCall",
      "outputs": [],
      "stateMutability": "payable",
      "type": "function"
    }
  ],
  "bytecode": "0x60a06040523073ffffffffffffffffffffffffffffffffffffffff1660809073ffffffffffffffffffffffffffffffffffffffff1660601b81525034801561004657600080fd5b5060805160601c61443161008160003960008181610f5201528181610fe1015281816112870152818161131601526113c601526144316000f3fe6080604052600436106101815760003560e01c80638da5cb5b116100d1578063b759f9541161008a578063de242ff411610064578063de242ff41461057f578063f2fde38b146105aa578063fc0c546a146105d3578063fda93f57146105fe57610181565b8063b759f954146104dc578063c4d66de814610519578063cb4591e31461054257610181565b80638da5cb5b146103bc578063905295e3146103e7578063922856b314610410578063a03f6df51461044d578063a694fc3a14610476578063af46aa081461049f57610181565b806345037b701161013e5780637048027511610118578063704802751461030257806370a082311461032b578063715018a614610368578063892b45051461037f57610181565b806345037b70146102905780634f1ef286146102bb57806352d1902d146102d757610181565b806306edbc25146101865780631785f53c146101af57806322684db0146101d85780632e17de78146102155780633659cfe61461023e57806338e4389514610267575b600080fd5b34801561019257600080fd5b506101ad60048036038101906101a891906132f3565b61063b565b005b3480156101bb57600080fd5b506101d660048036038101906101d191906132f3565b610713565b005b3480156101e457600080fd5b506101ff60048036038101906101fa9190613427565b610808565b60405161020c9190613b12565b60405180910390f35b34801561022157600080fd5b5061023c60048036038101906102379190613427565b610845565b005b34801561024a57600080fd5b50610265600480360381019061026091906132f3565b610f50565b005b34801561027357600080fd5b5061028e60048036038101906102899190613427565b6110ff565b005b34801561029c57600080fd5b506102a561127f565b6040516102b29190613b12565b60405180910390f35b6102d560048036038101906102d0919061331c565b611285565b005b3480156102e357600080fd5b506102ec6113c2565b6040516102f9919061387a565b60405180910390f35b34801561030e57600080fd5b50610329600480360381019061032491906132f3565b61147b565b005b34801561033757600080fd5b50610352600480360381019061034d91906132f3565b611570565b60405161035f9190613b12565b60405180910390f35b34801561037457600080fd5b5061037d6115b9565b005b34801561038b57600080fd5b506103a660048036038101906103a19190613427565b611641565b6040516103b39190613b12565b60405180910390f35b3480156103c857600080fd5b506103d161168a565b6040516103de91906137bb565b60405180910390f35b3480156103f357600080fd5b5061040e600480360381019061040991906132f3565b6116b4565b005b34801561041c57600080fd5b5061043760048036038101906104329190613427565b611795565b6040516104449190613b12565b60405180910390f35b34801561045957600080fd5b50610474600480360381019061046f9190613427565b6117bf565b005b34801561048257600080fd5b5061049d60048036038101906104989190613427565b611845565b005b3480156104ab57600080fd5b506104c660048036038101906104c191906132f3565b611ea3565b6040516104d39190613b12565b60405180910390f35b3480156104e857600080fd5b5061050360048036038101906104fe9190613427565b611eec565b604051610510919061385f565b60405180910390f35b34801561052557600080fd5b50610540600480360381019061053b91906133fe565b611fab565b005b34801561054e57600080fd5b5061056960048036038101906105649190613370565b6120eb565b6040516105769190613b12565b60405180910390f35b34801561058b57600080fd5b5061059461210c565b6040516105a19190613b12565b60405180910390f35b3480156105b657600080fd5b506105d160048036038101906105cc91906132f3565b6121c7565b005b3480156105df57600080fd5b506105e86122bf565b6040516105f59190613895565b60405180910390f35b34801561060a57600080fd5b50610625600480360381019061062091906132f3565b6122e5565b6040516106329190613b12565b60405180910390f35b61064361232e565b73ffffffffffffffffffffffffffffffffffffffff1661066161168a565b73ffffffffffffffffffffffffffffffffffffffff16146106b7576040517f08c379a00000000000000000000000000000000000000000000000000000000081526004016106ae90613a92565b60405180910390fd5b600160d360008373ffffffffffffffffffffffffffffffffffffffff1673ffffffffffffffffffffffffffffffffffffffff16815260200190815260200160002060006101000a81548160ff021916908360ff16021790555050565b600160d3600061072161232e565b73ffffffffffffffffffffffffffffffffffffffff1673ffffffffffffffffffffffffffffffffffffffff16815260200190815260200160002060009054906101000a900460ff1660ff16146107ac576040517f08c379a00000000000000000000000000000000000000000000000000000000081526004016107a390613ad2565b60405180910390fd5b600060d360008373ffffffffffffffffffffffffffffffffffffffff1673ffffffffffffffffffffffffffffffffffffffff16815260200190815260200160002060006101000a81548160ff021916908360ff16021790555050565b60008060ca546018603c808661081e9190613c0b565b6108289190613c0b565b6108329190613c0b565b61083c9190613c0b565b901c9050919050565b600061084f61232e565b9050600061085c82611570565b1161089c576040517f08c379a0000000000000000000000000000000000000000000000000000000008152600401610893906138d2565b60405180910390fd5b6000826108a883611570565b6108b29190613c96565b10156108f3576040517f08c379a00000000000000000000000000000000000000000000000000000000081526004016108ea906139d2565b60405180910390fd5b60006108fd612336565b9050600060ce60008473ffffffffffffffffffffffffffffffffffffffff1673ffffffffffffffffffffffffffffffffffffffff16815260200190815260200160002080548060200260200160405190810160405280929190818152602001828054801561098a57602002820191906000526020600020905b815481526020019060010190808311610976575b505050505090506000808383600185516109a49190613c96565b815181106109db577f4e487b7100000000000000000000000000000000000000000000000000000000600052603260045260246000fd5b60200260200101511490508015610dd157600060cf60008773ffffffffffffffffffffffffffffffffffffffff1673ffffffffffffffffffffffffffffffffffffffff168152602001908152602001600020805490509050600061271086610a439190613c3c565b905060005b82811015610dcd57600060cf60008a73ffffffffffffffffffffffffffffffffffffffff1673ffffffffffffffffffffffffffffffffffffffff168152602001908152602001600020600183610a9e9190613bb5565b85610aa99190613c96565b81548110610ae0577f4e487b7100000000000000000000000000000000000000000000000000000000600052603260045260246000fd5b9060005260206000200154905082811015610b865760ce60008a73ffffffffffffffffffffffffffffffffffffffff1673ffffffffffffffffffffffffffffffffffffffff168152602001908152602001600020805480610b6a577f4e487b7100000000000000000000000000000000000000000000000000000000600052603160045260246000fd5b6001900381819060005260206000200160009055905550610dcd565b600061271082610b969190613e0e565b9050600060cc60008c73ffffffffffffffffffffffffffffffffffffffff1673ffffffffffffffffffffffffffffffffffffffff16815260200190815260200160002060008b815260200190815260200160002060008381526020019081526020016000205490508088610c0a9190613bb5565b8c1115610d2657600060cc60008d73ffffffffffffffffffffffffffffffffffffffff1673ffffffffffffffffffffffffffffffffffffffff16815260200190815260200160002060008c815260200190815260200160002060008481526020019081526020016000208190555060cf60008c73ffffffffffffffffffffffffffffffffffffffff1673ffffffffffffffffffffffffffffffffffffffff168152602001908152602001600020805480610ced577f4e487b7100000000000000000000000000000000000000000000000000000000600052603160045260246000fd5b600190038181906000526020600020016000905590558088610d0f9190613bb5565b97508b881415610d2157505050610dcd565b610db7565b6000888d610d349190613c96565b90508060cc60008e73ffffffffffffffffffffffffffffffffffffffff1673ffffffffffffffffffffffffffffffffffffffff16815260200190815260200160002060008d815260200190815260200160002060008581526020019081526020016000206000828254610da79190613c96565b9250508190555050505050610dcd565b5050508080610dc590613dc5565b915050610a48565b5050505b8560cd60008773ffffffffffffffffffffffffffffffffffffffff1673ffffffffffffffffffffffffffffffffffffffff1681526020019081526020016000206000828254610e209190613c96565b92505081905550610e2f61237e565b612710600186610e3f9190613bb5565b610e499190613c3c565b610e539190613bb5565b60d160008773ffffffffffffffffffffffffffffffffffffffff1673ffffffffffffffffffffffffffffffffffffffff1681526020019081526020016000208190555060c960009054906101000a900473ffffffffffffffffffffffffffffffffffffffff1673ffffffffffffffffffffffffffffffffffffffff16636c74dd513087896040518463ffffffff1660e01b8152600401610ef5939291906137ff565b602060405180830381600087803b158015610f0f57600080fd5b505af1158015610f23573d6000803e3d6000fd5b505050506040513d601f19601f82011682018060405250810190610f4791906133ac565b50505050505050565b7f000000000000000000000000000000000000000000000000000000000000000073ffffffffffffffffffffffffffffffffffffffff163073ffffffffffffffffffffffffffffffffffffffff161415610fdf576040517f08c379a0000000000000000000000000000000000000000000000000000000008152600401610fd690613932565b60405180910390fd5b7f000000000000000000000000000000000000000000000000000000000000000073ffffffffffffffffffffffffffffffffffffffff1661101e6123d2565b73ffffffffffffffffffffffffffffffffffffffff1614611074576040517f08c379a000000000000000000000000000000000000000000000000000000000815260040161106b90613952565b60405180910390fd5b61107d81612429565b6110fc81600067ffffffffffffffff8111156110c2577f4e487b7100000000000000000000000000000000000000000000000000000000600052604160045260246000fd5b6040519080825280601f01601f1916602001820160405280156110f45781602001600182028036833780820191505090505b5060006124a8565b50565b60008111611142576040517f08c379a000000000000000000000000000000000000000000000000000000000815260040161113990613a52565b60405180910390fd5b600061114c61232e565b90506000611158612336565b90508260cb6000838152602001908152602001600020600082825461117d9190613bb5565b9250508190555060c960009054906101000a900473ffffffffffffffffffffffffffffffffffffffff1673ffffffffffffffffffffffffffffffffffffffff16636c74dd518330866040518463ffffffff1660e01b81526004016111e3939291906137ff565b602060405180830381600087803b1580156111fd57600080fd5b505af1158015611211573d6000803e3d6000fd5b505050506040513d601f19601f8201168201806040525081019061123591906133ac565b50828273ffffffffffffffffffffffffffffffffffffffff167fbb7d80264858cda07e4437c9626c74dc728d62f1369a77dcbab476527dff198360405160405180910390a3505050565b60ca5481565b7f000000000000000000000000000000000000000000000000000000000000000073ffffffffffffffffffffffffffffffffffffffff163073ffffffffffffffffffffffffffffffffffffffff161415611314576040517f08c379a000000000000000000000000000000000000000000000000000000000815260040161130b90613932565b60405180910390fd5b7f000000000000000000000000000000000000000000000000000000000000000073ffffffffffffffffffffffffffffffffffffffff166113536123d2565b73ffffffffffffffffffffffffffffffffffffffff16146113a9576040517f08c379a00000000000000000000000000000000000000000000000000000000081526004016113a090613952565b60405180910390fd5b6113b282612429565b6113be828260016124a8565b5050565b60007f000000000000000000000000000000000000000000000000000000000000000073ffffffffffffffffffffffffffffffffffffffff163073ffffffffffffffffffffffffffffffffffffffff1614611452576040517f08c379a0000000000000000000000000000000000000000000000000000000008152600401611449906139b2565b60405180910390fd5b7f360894a13ba1a3210667c828492db98dca3e2076cc3735a920a3ca505d382bbc60001b905090565b600160d3600061148961232e565b73ffffffffffffffffffffffffffffffffffffffff1673ffffffffffffffffffffffffffffffffffffffff16815260200190815260200160002060009054906101000a900460ff1660ff1614611514576040517f08c379a000000000000000000000000000000000000000000000000000000000815260040161150b90613ad2565b60405180910390fd5b600160d360008373ffffffffffffffffffffffffffffffffffffffff1673ffffffffffffffffffffffffffffffffffffffff16815260200190815260200160002060006101000a81548160ff021916908360ff16021790555050565b600060cd60008373ffffffffffffffffffffffffffffffffffffffff1673ffffffffffffffffffffffffffffffffffffffff168152602001908152602001600020549050919050565b6115c161232e565b73ffffffffffffffffffffffffffffffffffffffff166115df61168a565b73ffffffffffffffffffffffffffffffffffffffff1614611635576040517f08c379a000000000000000000000000000000000000000000000000000000000815260040161162c90613a92565b60405180910390fd5b61163f6000612625565b565b600080600160ca546018603c80876116599190613c0b565b6116639190613c0b565b61166d9190613c0b565b6116779190613e0e565b6116819190613bb5565b901c9050919050565b6000609760009054906101000a900473ffffffffffffffffffffffffffffffffffffffff16905090565b600160d360006116c261232e565b73ffffffffffffffffffffffffffffffffffffffff1673ffffffffffffffffffffffffffffffffffffffff16815260200190815260200160002060009054906101000a900460ff1660ff161461174d576040517f08c379a000000000000000000000000000000000000000000000000000000000815260040161174490613ad2565b60405180910390fd5b600060d160008373ffffffffffffffffffffffffffffffffffffffff1673ffffffffffffffffffffffffffffffffffffffff1681526020019081526020016000208190555050565b6000806117a183610808565b905060cb600082815260200190815260200160002054915050919050565b6117c761232e565b73ffffffffffffffffffffffffffffffffffffffff166117e561168a565b73ffffffffffffffffffffffffffffffffffffffff161461183b576040517f08c379a000000000000000000000000000000000000000000000000000000000815260040161183290613a92565b60405180910390fd5b8060ca8190555050565b600061185761185261232e565b6122e5565b14611897576040517f08c379a000000000000000000000000000000000000000000000000000000000815260040161188e90613972565b60405180910390fd5b600081116118da576040517f08c379a00000000000000000000000000000000000000000000000000000000081526004016118d1906138f2565b60405180910390fd5b60006118e461232e565b90508160c960009054906101000a900473ffffffffffffffffffffffffffffffffffffffff1673ffffffffffffffffffffffffffffffffffffffff166370a08231836040518263ffffffff1660e01b815260040161194291906137bb565b60206040518083038186803b15801561195a57600080fd5b505afa15801561196e573d6000803e3d6000fd5b505050506040513d601f19601f820116820180604052508101906119929190613450565b10156119d3576040517f08c379a00000000000000000000000000000000000000000000000000000000081526004016119ca90613992565b60405180910390fd5b60006119dd612336565b905060006119e961237e565b9050600060ce60008573ffffffffffffffffffffffffffffffffffffffff1673ffffffffffffffffffffffffffffffffffffffff168152602001908152602001600020805480602002602001604051908101604052809291908181526020018280548015611a7657602002820191906000526020600020905b815481526020019060010190808311611a62575b50505050509050600060cf60008673ffffffffffffffffffffffffffffffffffffffff1673ffffffffffffffffffffffffffffffffffffffff168152602001908152602001600020805480602002602001604051908101604052809291908181526020018280548015611b0857602002820191906000526020600020905b815481526020019060010190808311611af4575b505050505090506000611b1b83866126eb565b1415611b885760ce60008673ffffffffffffffffffffffffffffffffffffffff1673ffffffffffffffffffffffffffffffffffffffff1681526020019081526020016000208490806001815401808255809150506001900390600052602060002001600090919091909150555b60008361271086611b999190613c3c565b611ba39190613bb5565b90506000611bb183836126eb565b1115611c1e5760cf60008773ffffffffffffffffffffffffffffffffffffffff1673ffffffffffffffffffffffffffffffffffffffff1681526020019081526020016000208190806001815401808255809150506001900390600052602060002001600090919091909150555b6000611cb060d2805480602002602001604051908101604052809291908181526020018280548015611ca557602002820191906000526020600020905b8160009054906101000a900473ffffffffffffffffffffffffffffffffffffffff1673ffffffffffffffffffffffffffffffffffffffff1681526020019060010190808311611c5b575b50505050508861278e565b1415611d1a5760d2869080600181540180825580915050600190039060005260206000200160009091909190916101000a81548173ffffffffffffffffffffffffffffffffffffffff021916908373ffffffffffffffffffffffffffffffffffffffff1602179055505b8660cd60008873ffffffffffffffffffffffffffffffffffffffff1673ffffffffffffffffffffffffffffffffffffffff1681526020019081526020016000206000828254611d699190613bb5565b925050819055508660cc60008873ffffffffffffffffffffffffffffffffffffffff1673ffffffffffffffffffffffffffffffffffffffff168152602001908152602001600020600087815260200190815260200160002060008681526020019081526020016000206000828254611de19190613bb5565b9250508190555060c960009054906101000a900473ffffffffffffffffffffffffffffffffffffffff1673ffffffffffffffffffffffffffffffffffffffff16636c74dd5187308a6040518463ffffffff1660e01b8152600401611e47939291906137ff565b602060405180830381600087803b158015611e6157600080fd5b505af1158015611e75573d6000803e3d6000fd5b505050506040513d601f19601f82011682018060405250810190611e9991906133ac565b5050505050505050565b600060cd60008373ffffffffffffffffffffffffffffffffffffffff1673ffffffffffffffffffffffffffffffffffffffff168152602001908152602001600020549050919050565b600060c960009054906101000a900473ffffffffffffffffffffffffffffffffffffffff1673ffffffffffffffffffffffffffffffffffffffff16631b050a9c611f3461232e565b846040518363ffffffff1660e01b8152600401611f52929190613836565b602060405180830381600087803b158015611f6c57600080fd5b505af1158015611f80573d6000803e3d6000fd5b505050506040513d601f19601f82011682018060405250810190611fa491906133ac565b9050919050565b600060019054906101000a900460ff16611fd35760008054906101000a900460ff1615611fdc565b611fdb61285d565b5b61201b576040517f08c379a000000000000000000000000000000000000000000000000000000000815260040161201290613a12565b60405180910390fd5b60008060019054906101000a900460ff16159050801561206b576001600060016101000a81548160ff02191690831515021790555060016000806101000a81548160ff0219169083151502179055505b61207361286e565b61207b6128c7565b8160c960006101000a81548173ffffffffffffffffffffffffffffffffffffffff021916908373ffffffffffffffffffffffffffffffffffffffff1602179055506120c660036117bf565b80156120e75760008060016101000a81548160ff0219169083151502179055505b5050565b6000806120f783610808565b90506121038482612918565b91505092915050565b600060c960009054906101000a900473ffffffffffffffffffffffffffffffffffffffff1673ffffffffffffffffffffffffffffffffffffffff1663dd62ed3e61215461232e565b306040518363ffffffff1660e01b81526004016121729291906137d6565b60206040518083038186803b15801561218a57600080fd5b505afa15801561219e573d6000803e3d6000fd5b505050506040513d601f19601f820116820180604052508101906121c29190613450565b905090565b6121cf61232e565b73ffffffffffffffffffffffffffffffffffffffff166121ed61168a565b73ffffffffffffffffffffffffffffffffffffffff1614612243576040517f08c379a000000000000000000000000000000000000000000000000000000000815260040161223a90613a92565b60405180910390fd5b600073ffffffffffffffffffffffffffffffffffffffff168173ffffffffffffffffffffffffffffffffffffffff1614156122b3576040517f08c379a00000000000000000000000000000000000000000000000000000000081526004016122aa90613912565b60405180910390fd5b6122bc81612625565b50565b60c960009054906101000a900473ffffffffffffffffffffffffffffffffffffffff1681565b600060d160008373ffffffffffffffffffffffffffffffffffffffff1673ffffffffffffffffffffffffffffffffffffffff168152602001908152602001600020549050919050565b600033905090565b60008060ca546018603c806170804261234f9190613c96565b6123599190613c0b565b6123639190613c0b565b61236d9190613c0b565b6123779190613c0b565b901c905090565b600080600160ca546018603c80617080426123999190613c96565b6123a39190613c0b565b6123ad9190613c0b565b6123b79190613c0b565b6123c19190613e0e565b6123cb9190613bb5565b901c905090565b60006124007f360894a13ba1a3210667c828492db98dca3e2076cc3735a920a3ca505d382bbc60001b612b3e565b60000160009054906101000a900473ffffffffffffffffffffffffffffffffffffffff16905090565b61243161232e565b73ffffffffffffffffffffffffffffffffffffffff1661244f61168a565b73ffffffffffffffffffffffffffffffffffffffff16146124a5576040517f08c379a000000000000000000000000000000000000000000000000000000000815260040161249c90613a92565b60405180910390fd5b50565b6124d47f4910fdfa16fed3260ed0e7147f7cc6da11a60208b5b9406d12a635614ffd914360001b612b48565b60000160009054906101000a900460ff16156124f8576124f383612b52565b612620565b8273ffffffffffffffffffffffffffffffffffffffff166352d1902d6040518163ffffffff1660e01b815260040160206040518083038186803b15801561253e57600080fd5b505afa92505050801561256f57506040513d601f19601f8201168201806040525081019061256c91906133d5565b60015b6125ae576040517f08c379a00000000000000000000000000000000000000000000000000000000081526004016125a590613a32565b60405180910390fd5b7f360894a13ba1a3210667c828492db98dca3e2076cc3735a920a3ca505d382bbc60001b8114612613576040517f08c379a000000000000000000000000000000000000000000000000000000000815260040161260a906139f2565b60405180910390fd5b5061261f838383612c0b565b5b505050565b6000609760009054906101000a900473ffffffffffffffffffffffffffffffffffffffff16905081609760006101000a81548173ffffffffffffffffffffffffffffffffffffffff021916908373ffffffffffffffffffffffffffffffffffffffff1602179055508173ffffffffffffffffffffffffffffffffffffffff168173ffffffffffffffffffffffffffffffffffffffff167f8be0079c531659141344cd1fd0a4f28419497f9722a3daafe3b4186f6b6457e060405160405180910390a35050565b600080835190506000811415612705576000915050612788565b60005b81811015612781578385828151811061274a577f4e487b7100000000000000000000000000000000000000000000000000000000600052603260045260246000fd5b6020026020010151141561276e576001816127659190613bb5565b92505050612788565b808061277990613dc5565b915050612708565b5060009150505b92915050565b6000808351905060008114156127a8576000915050612857565b60005b81811015612850578373ffffffffffffffffffffffffffffffffffffffff16858281518110612803577f4e487b7100000000000000000000000000000000000000000000000000000000600052603260045260246000fd5b602002602001015173ffffffffffffffffffffffffffffffffffffffff16141561283d576001816128349190613bb5565b92505050612857565b808061284890613dc5565b9150506127ab565b5060009150505b92915050565b600061286830612c37565b15905090565b600060019054906101000a900460ff166128bd576040517f08c379a00000000000000000000000000000000000000000000000000000000081526004016128b490613af2565b60405180910390fd5b6128c5612c5a565b565b600060019054906101000a900460ff16612916576040517f08c379a000000000000000000000000000000000000000000000000000000000815260040161290d90613af2565b60405180910390fd5b565b60008060ce60008573ffffffffffffffffffffffffffffffffffffffff1673ffffffffffffffffffffffffffffffffffffffff1681526020019081526020016000208054806020026020016040519081016040528092919081815260200182805480156129a457602002820191906000526020600020905b815481526020019060010190808311612990575b505050505090506000815114156129bf576000915050612b38565b600060d060008673ffffffffffffffffffffffffffffffffffffffff1673ffffffffffffffffffffffffffffffffffffffff168152602001908152602001600020805480602002602001604051908101604052809291908181526020018280548015612a4a57602002820191906000526020600020905b815481526020019060010190808311612a36575b50505050509050600080600090506000835190506000811115612aca5783600182612a759190613c96565b81518110612aac577f4e487b7100000000000000000000000000000000000000000000000000000000600052603260045260246000fd5b60200260200101519150600182612ac39190613bb5565b9250612b0f565b84600081518110612b04577f4e487b7100000000000000000000000000000000000000000000000000000000600052603260045260246000fd5b602002602001015192505b86831415612b2557600095505050505050612b38565b612b30888489612cbb565b955050505050505b92915050565b6000819050919050565b6000819050919050565b612b5b81612c37565b612b9a576040517f08c379a0000000000000000000000000000000000000000000000000000000008152600401612b9190613a72565b60405180910390fd5b80612bc77f360894a13ba1a3210667c828492db98dca3e2076cc3735a920a3ca505d382bbc60001b612b3e565b60000160006101000a81548173ffffffffffffffffffffffffffffffffffffffff021916908373ffffffffffffffffffffffffffffffffffffffff16021790555050565b612c1483612e3b565b600082511180612c215750805b15612c3257612c308383612e8a565b505b505050565b6000808273ffffffffffffffffffffffffffffffffffffffff163b119050919050565b600060019054906101000a900460ff16612ca9576040517f08c379a0000000000000000000000000000000000000000000000000000000008152600401612ca090613af2565b60405180910390fd5b612cb9612cb461232e565b612625565b565b6000806000905060008490505b83811015612e2f57600060d280549050905060008060005b83811015612de157600060d28281548110612d24577f4e487b7100000000000000000000000000000000000000000000000000000000600052603260045260246000fd5b9060005260206000200160009054906101000a900473ffffffffffffffffffffffffffffffffffffffff1690508a73ffffffffffffffffffffffffffffffffffffffff168173ffffffffffffffffffffffffffffffffffffffff161415612db5576000612d91878d612f6e565b90508085612d9f9190613bb5565b94508084612dad9190613bb5565b935050612dcd565b612dbf8682612f6e565b83612dca9190613bb5565b92505b508080612dd990613dc5565b915050612ce0565b5060cb6000858152602001908152602001600020548183612e029190613c0b565b612e0c9190613c3c565b85612e179190613bb5565b94505050508080612e2790613dc5565b915050612cc8565b50809150509392505050565b612e4481612b52565b8073ffffffffffffffffffffffffffffffffffffffff167fbc7cd75a20ee27fd9adebab32041f755214dbc6bffa90cc0225b39da2e5c2d3b60405160405180910390a250565b6060612e9583612c37565b612ed4576040517f08c379a0000000000000000000000000000000000000000000000000000000008152600401612ecb90613ab2565b60405180910390fd5b6000808473ffffffffffffffffffffffffffffffffffffffff1684604051612efc91906137a4565b600060405180830381855af49150503d8060008114612f37576040519150601f19603f3d011682016040523d82523d6000602084013e612f3c565b606091505b5091509150612f6482826040518060600160405280602781526020016143d5602791396131a6565b9250505092915050565b600080600160ca54612f809190613bb5565b61271085612f8e9190613c3c565b612f989190613bb5565b9050600060cf60008573ffffffffffffffffffffffffffffffffffffffff1673ffffffffffffffffffffffffffffffffffffffff16815260200190815260200160002080548060200260200160405190810160405280929190818152602001828054801561302557602002820191906000526020600020905b815481526020019060010190808311613011575b505050505090506000815190506000805b82811015613198576000848281518110613079577f4e487b7100000000000000000000000000000000000000000000000000000000600052603260045260246000fd5b60200260200101519050858111156130915750613198565b6000612710826130a19190613e0e565b9050600061271082846130b49190613c96565b6130be9190613c0b565b9050600060cc60008c73ffffffffffffffffffffffffffffffffffffffff1673ffffffffffffffffffffffffffffffffffffffff168152602001908152602001600020600083815260200190815260200160002060008481526020019081526020016000205490508b82101561314e578060ca5461313c9190613c3c565b866131479190613bb5565b9550613181565b8060018460ca5461315f9190613c96565b6131699190613bb5565b6131739190613c3c565b8661317e9190613bb5565b95505b50505050808061319090613dc5565b915050613036565b508094505050505092915050565b606083156131b657829050613206565b6000835111156131c95782518084602001fd5b816040517f08c379a00000000000000000000000000000000000000000000000000000000081526004016131fd91906138b0565b60405180910390fd5b9392505050565b600061322061321b84613b52565b613b2d565b90508281526020810184848401111561323857600080fd5b613243848285613d52565b509392505050565b60008135905061325a81614361565b92915050565b60008151905061326f81614378565b92915050565b6000815190506132848161438f565b92915050565b600082601f83011261329b57600080fd5b81356132ab84826020860161320d565b91505092915050565b6000813590506132c3816143a6565b92915050565b6000813590506132d8816143bd565b92915050565b6000815190506132ed816143bd565b92915050565b60006020828403121561330557600080fd5b60006133138482850161324b565b91505092915050565b6000806040838503121561332f57600080fd5b600061333d8582860161324b565b925050602083013567ffffffffffffffff81111561335a57600080fd5b6133668582860161328a565b9150509250929050565b6000806040838503121561338357600080fd5b60006133918582860161324b565b92505060206133a2858286016132c9565b9150509250929050565b6000602082840312156133be57600080fd5b60006133cc84828501613260565b91505092915050565b6000602082840312156133e757600080fd5b60006133f584828501613275565b91505092915050565b60006020828403121561341057600080fd5b600061341e848285016132b4565b91505092915050565b60006020828403121561343957600080fd5b6000613447848285016132c9565b91505092915050565b60006020828403121561346257600080fd5b6000613470848285016132de565b91505092915050565b61348281613cca565b82525050565b61349181613cdc565b82525050565b6134a081613ce8565b82525050565b60006134b182613b83565b6134bb8185613b99565b93506134cb818560208601613d61565b80840191505092915050565b6134e081613d2e565b82525050565b60006134f182613b8e565b6134fb8185613ba4565b935061350b818560208601613d61565b61351481613ecc565b840191505092915050565b600061352c601283613ba4565b915061353782613edd565b602082019050919050565b600061354f600a83613ba4565b915061355a82613f06565b602082019050919050565b6000613572602683613ba4565b915061357d82613f2f565b604082019050919050565b6000613595602c83613ba4565b91506135a082613f7e565b604082019050919050565b60006135b8602c83613ba4565b91506135c382613fcd565b604082019050919050565b60006135db602283613ba4565b91506135e68261401c565b604082019050919050565b60006135fe601283613ba4565b91506136098261406b565b602082019050919050565b6000613621603883613ba4565b915061362c82614094565b604082019050919050565b6000613644601d83613ba4565b915061364f826140e3565b602082019050919050565b6000613667602983613ba4565b91506136728261410c565b604082019050919050565b600061368a602e83613ba4565b91506136958261415b565b604082019050919050565b60006136ad602e83613ba4565b91506136b8826141aa565b604082019050919050565b60006136d0600b83613ba4565b91506136db826141f9565b602082019050919050565b60006136f3602d83613ba4565b91506136fe82614222565b604082019050919050565b6000613716602083613ba4565b915061372182614271565b602082019050919050565b6000613739602683613ba4565b91506137448261429a565b604082019050919050565b600061375c601583613ba4565b9150613767826142e9565b602082019050919050565b600061377f602b83613ba4565b915061378a82614312565b604082019050919050565b61379e81613d24565b82525050565b60006137b082846134a6565b915081905092915050565b60006020820190506137d06000830184613479565b92915050565b60006040820190506137eb6000830185613479565b6137f86020830184613479565b9392505050565b60006060820190506138146000830186613479565b6138216020830185613479565b61382e6040830184613795565b949350505050565b600060408201905061384b6000830185613479565b6138586020830184613795565b9392505050565b60006020820190506138746000830184613488565b92915050565b600060208201905061388f6000830184613497565b92915050565b60006020820190506138aa60008301846134d7565b92915050565b600060208201905081810360008301526138ca81846134e6565b905092915050565b600060208201905081810360008301526138eb8161351f565b9050919050565b6000602082019050818103600083015261390b81613542565b9050919050565b6000602082019050818103600083015261392b81613565565b9050919050565b6000602082019050818103600083015261394b81613588565b9050919050565b6000602082019050818103600083015261396b816135ab565b9050919050565b6000602082019050818103600083015261398b816135ce565b9050919050565b600060208201905081810360008301526139ab816135f1565b9050919050565b600060208201905081810360008301526139cb81613614565b9050919050565b600060208201905081810360008301526139eb81613637565b9050919050565b60006020820190508181036000830152613a0b8161365a565b9050919050565b60006020820190508181036000830152613a2b8161367d565b9050919050565b60006020820190508181036000830152613a4b816136a0565b9050919050565b60006020820190508181036000830152613a6b816136c3565b9050919050565b60006020820190508181036000830152613a8b816136e6565b9050919050565b60006020820190508181036000830152613aab81613709565b9050919050565b60006020820190508181036000830152613acb8161372c565b9050919050565b60006020820190508181036000830152613aeb8161374f565b9050919050565b60006020820190508181036000830152613b0b81613772565b9050919050565b6000602082019050613b276000830184613795565b92915050565b6000613b37613b48565b9050613b438282613d94565b919050565b6000604051905090565b600067ffffffffffffffff821115613b6d57613b6c613e9d565b5b613b7682613ecc565b9050602081019050919050565b600081519050919050565b600081519050919050565b600081905092915050565b600082825260208201905092915050565b6000613bc082613d24565b9150613bcb83613d24565b9250827fffffffffffffffffffffffffffffffffffffffffffffffffffffffffffffffff03821115613c0057613bff613e3f565b5b828201905092915050565b6000613c1682613d24565b9150613c2183613d24565b925082613c3157613c30613e6e565b5b828204905092915050565b6000613c4782613d24565b9150613c5283613d24565b9250817fffffffffffffffffffffffffffffffffffffffffffffffffffffffffffffffff0483118215151615613c8b57613c8a613e3f565b5b828202905092915050565b6000613ca182613d24565b9150613cac83613d24565b925082821015613cbf57613cbe613e3f565b5b828203905092915050565b6000613cd582613d04565b9050919050565b60008115159050919050565b6000819050919050565b6000613cfd82613cca565b9050919050565b600073ffffffffffffffffffffffffffffffffffffffff82169050919050565b6000819050919050565b6000613d3982613d40565b9050919050565b6000613d4b82613d04565b9050919050565b82818337600083830152505050565b60005b83811015613d7f578082015181840152602081019050613d64565b83811115613d8e576000848401525b50505050565b613d9d82613ecc565b810181811067ffffffffffffffff82111715613dbc57613dbb613e9d565b5b80604052505050565b6000613dd082613d24565b91507fffffffffffffffffffffffffffffffffffffffffffffffffffffffffffffffff821415613e0357613e02613e3f565b5b600182019050919050565b6000613e1982613d24565b9150613e2483613d24565b925082613e3457613e33613e6e565b5b828206905092915050565b7f4e487b7100000000000000000000000000000000000000000000000000000000600052601160045260246000fd5b7f4e487b7100000000000000000000000000000000000000000000000000000000600052601260045260246000fd5b7f4e487b7100000000000000000000000000000000000000000000000000000000600052604160045260246000fd5b6000601f19601f8301169050919050565b7f4f776e657220686173206e6f207374616b650000000000000000000000000000600082015250565b7f5374616b65206973203000000000000000000000000000000000000000000000600082015250565b7f4f776e61626c653a206e6577206f776e657220697320746865207a65726f206160008201527f6464726573730000000000000000000000000000000000000000000000000000602082015250565b7f46756e6374696f6e206d7573742062652063616c6c6564207468726f7567682060008201527f64656c656761746563616c6c0000000000000000000000000000000000000000602082015250565b7f46756e6374696f6e206d7573742062652063616c6c6564207468726f7567682060008201527f6163746976652070726f78790000000000000000000000000000000000000000602082015250565b7f4163636f756e7420626c6f636b656420756e74696c206e65787420706572696f60008201527f642e000000000000000000000000000000000000000000000000000000000000602082015250565b7f496e73756666696369656e742066756e64730000000000000000000000000000600082015250565b7f555550535570677261646561626c653a206d757374206e6f742062652063616c60008201527f6c6564207468726f7567682064656c656761746563616c6c0000000000000000602082015250565b7f416d6f756e742065786365656473207374616b65642062616c616e6365000000600082015250565b7f45524331393637557067726164653a20756e737570706f727465642070726f7860008201527f6961626c65555549440000000000000000000000000000000000000000000000602082015250565b7f496e697469616c697a61626c653a20636f6e747261637420697320616c72656160008201527f647920696e697469616c697a6564000000000000000000000000000000000000602082015250565b7f45524331393637557067726164653a206e657720696d706c656d656e7461746960008201527f6f6e206973206e6f742055555053000000000000000000000000000000000000602082015250565b7f426f756e74792069732030000000000000000000000000000000000000000000600082015250565b7f455243313936373a206e657720696d706c656d656e746174696f6e206973206e60008201527f6f74206120636f6e747261637400000000000000000000000000000000000000602082015250565b7f4f776e61626c653a2063616c6c6572206973206e6f7420746865206f776e6572600082015250565b7f416464726573733a2064656c65676174652063616c6c20746f206e6f6e2d636f60008201527f6e74726163740000000000000000000000000000000000000000000000000000602082015250565b7f52657175697265732061646d696e206163636573730000000000000000000000600082015250565b7f496e697469616c697a61626c653a20636f6e7472616374206973206e6f74206960008201527f6e697469616c697a696e67000000000000000000000000000000000000000000602082015250565b61436a81613cca565b811461437557600080fd5b50565b61438181613cdc565b811461438c57600080fd5b50565b61439881613ce8565b81146143a357600080fd5b50565b6143af81613cf2565b81146143ba57600080fd5b50565b6143c681613d24565b81146143d157600080fd5b5056fe416464726573733a206c6f772d6c6576656c2064656c65676174652063616c6c206661696c6564a2646970667358221220bc774cf81a8492dba754c05ea888ee1ea1e063bf8e97f4c835f87145a8c147c564736f6c63430008020033",
  "linkReferences": {},
  "deployedLinkReferences": {}
}