{
  "_format": "hh-sol-artifact-1",
  "contractName": "Staking",
  "sourceName": "contracts/Staking.sol",
  "abi": [
    {
      "anonymous": false,
      "inputs": [
        {
          "indexed": false,
          "internalType": "address",
          "name": "previousAdmin",
          "type": "address"
        },
        {
          "indexed": false,
          "internalType": "address",
          "name": "newAdmin",
          "type": "address"
        }
      ],
      "name": "AdminChanged",
      "type": "event"
    },
    {
      "anonymous": false,
      "inputs": [
        {
          "indexed": true,
          "internalType": "address",
          "name": "beacon",
          "type": "address"
        }
      ],
      "name": "BeaconUpgraded",
      "type": "event"
    },
    {
      "anonymous": false,
      "inputs": [
        {
          "indexed": true,
          "internalType": "address",
          "name": "from",
          "type": "address"
        },
        {
          "indexed": true,
          "internalType": "uint256",
          "name": "value",
          "type": "uint256"
        }
      ],
      "name": "BountyAdded",
      "type": "event"
    },
    {
      "anonymous": false,
      "inputs": [
        {
          "indexed": true,
          "internalType": "address",
          "name": "previousOwner",
          "type": "address"
        },
        {
          "indexed": true,
          "internalType": "address",
          "name": "newOwner",
          "type": "address"
        }
      ],
      "name": "OwnershipTransferred",
      "type": "event"
    },
    {
      "anonymous": false,
      "inputs": [
        {
          "indexed": true,
          "internalType": "address",
          "name": "implementation",
          "type": "address"
        }
      ],
      "name": "Upgraded",
      "type": "event"
    },
    {
      "inputs": [
        {
          "internalType": "uint256",
          "name": "amount",
          "type": "uint256"
        }
      ],
      "name": "addBounty",
      "outputs": [],
      "stateMutability": "nonpayable",
      "type": "function"
    },
    {
      "inputs": [],
      "name": "allowance",
      "outputs": [
        {
          "internalType": "uint256",
          "name": "",
          "type": "uint256"
        }
      ],
      "stateMutability": "view",
      "type": "function"
    },
    {
      "inputs": [
        {
          "internalType": "uint256",
          "name": "_tokenAmount",
          "type": "uint256"
        }
      ],
      "name": "approve",
      "outputs": [
        {
          "internalType": "bool",
          "name": "",
          "type": "bool"
        }
      ],
      "stateMutability": "nonpayable",
      "type": "function"
    },
    {
      "inputs": [
        {
          "internalType": "address",
          "name": "owner",
          "type": "address"
        }
      ],
      "name": "balanceOf",
      "outputs": [
        {
          "internalType": "uint256",
          "name": "",
          "type": "uint256"
        }
      ],
      "stateMutability": "view",
      "type": "function"
    },
    {
      "inputs": [
        {
          "internalType": "uint256",
          "name": "epochSeconds",
          "type": "uint256"
        }
      ],
      "name": "getCurrentBounty",
      "outputs": [
        {
          "internalType": "uint256",
          "name": "",
          "type": "uint256"
        }
      ],
      "stateMutability": "view",
      "type": "function"
    },
    {
      "inputs": [
        {
          "internalType": "uint256",
          "name": "epochSeconds",
          "type": "uint256"
        }
      ],
      "name": "getCurrentPeriod",
      "outputs": [
        {
          "internalType": "uint256",
          "name": "",
          "type": "uint256"
        }
      ],
      "stateMutability": "view",
      "type": "function"
    },
    {
      "inputs": [
        {
          "internalType": "uint256",
          "name": "epochSeconds",
          "type": "uint256"
        }
      ],
      "name": "getCurrentPeriodDay",
      "outputs": [
        {
          "internalType": "uint256",
          "name": "",
          "type": "uint256"
        }
      ],
      "stateMutability": "view",
      "type": "function"
    },
    {
      "inputs": [
        {
          "internalType": "contract IERC20Stakeable",
          "name": "_token",
          "type": "address"
        }
      ],
      "name": "initialize",
      "outputs": [],
      "stateMutability": "nonpayable",
      "type": "function"
    },
    {
      "inputs": [
        {
          "internalType": "address",
          "name": "account",
          "type": "address"
        }
      ],
      "name": "lockoutStatus",
      "outputs": [
        {
          "internalType": "uint256",
          "name": "",
          "type": "uint256"
        }
      ],
      "stateMutability": "view",
      "type": "function"
    },
    {
      "inputs": [],
      "name": "owner",
      "outputs": [
        {
          "internalType": "address",
          "name": "",
          "type": "address"
        }
      ],
      "stateMutability": "view",
      "type": "function"
    },
    {
      "inputs": [],
      "name": "periodRange",
      "outputs": [
        {
          "internalType": "uint256",
          "name": "",
          "type": "uint256"
        }
      ],
      "stateMutability": "view",
      "type": "function"
    },
    {
      "inputs": [],
      "name": "proxiableUUID",
      "outputs": [
        {
          "internalType": "bytes32",
          "name": "",
          "type": "bytes32"
        }
      ],
      "stateMutability": "view",
      "type": "function"
    },
    {
      "inputs": [],
      "name": "renounceOwnership",
      "outputs": [],
      "stateMutability": "nonpayable",
      "type": "function"
    },
    {
      "inputs": [
        {
          "internalType": "address",
          "name": "owner",
          "type": "address"
        },
        {
          "internalType": "uint256",
          "name": "epochSeconds",
          "type": "uint256"
        }
      ],
      "name": "rewardsBalanceOf",
      "outputs": [
        {
          "internalType": "uint256",
          "name": "",
          "type": "uint256"
        }
      ],
      "stateMutability": "view",
      "type": "function"
    },
    {
      "inputs": [
        {
          "internalType": "uint256",
          "name": "dayRange",
          "type": "uint256"
        }
      ],
      "name": "setPeriodRange",
      "outputs": [],
      "stateMutability": "nonpayable",
      "type": "function"
    },
    {
      "inputs": [
        {
          "internalType": "uint256",
          "name": "amount",
          "type": "uint256"
        }
      ],
      "name": "stake",
      "outputs": [],
      "stateMutability": "nonpayable",
      "type": "function"
    },
    {
      "inputs": [
        {
          "internalType": "address",
          "name": "owner",
          "type": "address"
        }
      ],
      "name": "stakeBalanceOf",
      "outputs": [
        {
          "internalType": "uint256",
          "name": "",
          "type": "uint256"
        }
      ],
      "stateMutability": "view",
      "type": "function"
    },
    {
      "inputs": [],
      "name": "token",
      "outputs": [
        {
          "internalType": "contract IERC20Stakeable",
          "name": "",
          "type": "address"
        }
      ],
      "stateMutability": "view",
      "type": "function"
    },
    {
      "inputs": [
        {
          "internalType": "address",
          "name": "newOwner",
          "type": "address"
        }
      ],
      "name": "transferOwnership",
      "outputs": [],
      "stateMutability": "nonpayable",
      "type": "function"
    },
    {
      "inputs": [],
      "name": "unstake",
      "outputs": [],
      "stateMutability": "nonpayable",
      "type": "function"
    },
    {
      "inputs": [
        {
          "internalType": "address",
          "name": "newImplementation",
          "type": "address"
        }
      ],
      "name": "upgradeTo",
      "outputs": [],
      "stateMutability": "nonpayable",
      "type": "function"
    },
    {
      "inputs": [
        {
          "internalType": "address",
          "name": "newImplementation",
          "type": "address"
        },
        {
          "internalType": "bytes",
          "name": "data",
          "type": "bytes"
        }
      ],
      "name": "upgradeToAndCall",
      "outputs": [],
      "stateMutability": "payable",
      "type": "function"
    }
  ],
  "bytecode": "0x60a06040523073ffffffffffffffffffffffffffffffffffffffff1660809073ffffffffffffffffffffffffffffffffffffffff1660601b81525034801561004657600080fd5b5060805160601c613e8061008160003960008181610b8d01528181610c1c01528181610ec201528181610f5101526110010152613e806000f3fe6080604052600436106101355760003560e01c8063922856b3116100ab578063c4d66de81161006f578063c4d66de814610417578063cb4591e314610440578063de242ff41461047d578063f2fde38b146104a8578063fc0c546a146104d1578063fda93f57146104fc57610135565b8063922856b31461030e578063a03f6df51461034b578063a694fc3a14610374578063af46aa081461039d578063b759f954146103da57610135565b80634f1ef286116100fd5780634f1ef2861461020b57806352d1902d1461022757806370a0823114610252578063715018a61461028f578063892b4505146102a65780638da5cb5b146102e357610135565b806322684db01461013a5780632def6620146101775780633659cfe61461018e57806338e43895146101b757806345037b70146101e0575b600080fd5b34801561014657600080fd5b50610161600480360381019061015c9190612f4e565b610539565b60405161016e91906135b3565b60405180910390f35b34801561018357600080fd5b5061018c610576565b005b34801561019a57600080fd5b506101b560048036038101906101b09190612e1a565b610b8b565b005b3480156101c357600080fd5b506101de60048036038101906101d99190612f4e565b610d3a565b005b3480156101ec57600080fd5b506101f5610eba565b60405161020291906135b3565b60405180910390f35b61022560048036038101906102209190612e43565b610ec0565b005b34801561023357600080fd5b5061023c610ffd565b604051610249919061335b565b60405180910390f35b34801561025e57600080fd5b5061027960048036038101906102749190612e1a565b6110b6565b60405161028691906135b3565b60405180910390f35b34801561029b57600080fd5b506102a461116a565b005b3480156102b257600080fd5b506102cd60048036038101906102c89190612f4e565b6111f2565b6040516102da91906135b3565b60405180910390f35b3480156102ef57600080fd5b506102f861123b565b604051610305919061329c565b60405180910390f35b34801561031a57600080fd5b5061033560048036038101906103309190612f4e565b611265565b60405161034291906135b3565b60405180910390f35b34801561035757600080fd5b50610372600480360381019061036d9190612f4e565b61128f565b005b34801561038057600080fd5b5061039b60048036038101906103969190612f4e565b611315565b005b3480156103a957600080fd5b506103c460048036038101906103bf9190612e1a565b611973565b6040516103d191906135b3565b60405180910390f35b3480156103e657600080fd5b5061040160048036038101906103fc9190612f4e565b6119bc565b60405161040e9190613340565b60405180910390f35b34801561042357600080fd5b5061043e60048036038101906104399190612f25565b611a7b565b005b34801561044c57600080fd5b5061046760048036038101906104629190612e97565b611bbb565b60405161047491906135b3565b60405180910390f35b34801561048957600080fd5b50610492611c2e565b60405161049f91906135b3565b60405180910390f35b3480156104b457600080fd5b506104cf60048036038101906104ca9190612e1a565b611ce9565b005b3480156104dd57600080fd5b506104e6611de1565b6040516104f39190613376565b60405180910390f35b34801561050857600080fd5b50610523600480360381019061051e9190612e1a565b611e07565b60405161053091906135b3565b60405180910390f35b60008060ca546018603c808661054f91906136ac565b61055991906136ac565b61056391906136ac565b61056d91906136ac565b901c9050919050565b6000610588610583611e50565b611e07565b146105c8576040517f08c379a00000000000000000000000000000000000000000000000000000000081526004016105bf90613453565b60405180910390fd5b60006105d2611e50565b905060006105de611e58565b9050600060ce60008473ffffffffffffffffffffffffffffffffffffffff1673ffffffffffffffffffffffffffffffffffffffff16815260200190815260200160002080548060200260200160405190810160405280929190818152602001828054801561066b57602002820191906000526020600020905b815481526020019060010190808311610657575b5050505050905060008151116106b6576040517f08c379a00000000000000000000000000000000000000000000000000000000081526004016106ad906133b3565b60405180910390fd5b60008282600184516106c89190613737565b815181106106ff577f4e487b7100000000000000000000000000000000000000000000000000000000600052603260045260246000fd5b602002602001015114905080156109c75760ce60008573ffffffffffffffffffffffffffffffffffffffff1673ffffffffffffffffffffffffffffffffffffffff168152602001908152602001600020805480610785577f4e487b7100000000000000000000000000000000000000000000000000000000600052603160045260246000fd5b60019003818190600052602060002001600090559055600060cf60008673ffffffffffffffffffffffffffffffffffffffff1673ffffffffffffffffffffffffffffffffffffffff1681526020019081526020016000208054905090506000612710856107f291906136dd565b905060005b828110156109c357600060cf60008973ffffffffffffffffffffffffffffffffffffffff1673ffffffffffffffffffffffffffffffffffffffff16815260200190815260200160002060018361084d9190613656565b856108589190613737565b8154811061088f577f4e487b7100000000000000000000000000000000000000000000000000000000600052603260045260246000fd5b90600052602060002001549050828110156108aa57506109c3565b6000612710826108ba91906138af565b9050600060cc60008b73ffffffffffffffffffffffffffffffffffffffff1673ffffffffffffffffffffffffffffffffffffffff16815260200190815260200160002060008a815260200190815260200160002060008381526020019081526020016000208190555060cf60008a73ffffffffffffffffffffffffffffffffffffffff1673ffffffffffffffffffffffffffffffffffffffff168152602001908152602001600020805480610998577f4e487b7100000000000000000000000000000000000000000000000000000000600052603160045260246000fd5b60019003818190600052602060002001600090559055505080806109bb90613866565b9150506107f7565b5050505b60006109d285611e93565b60cd60008773ffffffffffffffffffffffffffffffffffffffff1673ffffffffffffffffffffffffffffffffffffffff16815260200190815260200160002054610a1c9190613656565b9050600060cd60008773ffffffffffffffffffffffffffffffffffffffff1673ffffffffffffffffffffffffffffffffffffffff16815260200190815260200160002081905550610a6b611eb2565b612710600186610a7b9190613656565b610a8591906136dd565b610a8f9190613656565b60d160008773ffffffffffffffffffffffffffffffffffffffff1673ffffffffffffffffffffffffffffffffffffffff1681526020019081526020016000208190555060c960009054906101000a900473ffffffffffffffffffffffffffffffffffffffff1673ffffffffffffffffffffffffffffffffffffffff16636c74dd513087846040518463ffffffff1660e01b8152600401610b31939291906132e0565b602060405180830381600087803b158015610b4b57600080fd5b505af1158015610b5f573d6000803e3d6000fd5b505050506040513d601f19601f82011682018060405250810190610b839190612ed3565b505050505050565b7f000000000000000000000000000000000000000000000000000000000000000073ffffffffffffffffffffffffffffffffffffffff163073ffffffffffffffffffffffffffffffffffffffff161415610c1a576040517f08c379a0000000000000000000000000000000000000000000000000000000008152600401610c1190613413565b60405180910390fd5b7f000000000000000000000000000000000000000000000000000000000000000073ffffffffffffffffffffffffffffffffffffffff16610c59611ef9565b73ffffffffffffffffffffffffffffffffffffffff1614610caf576040517f08c379a0000000000000000000000000000000000000000000000000000000008152600401610ca690613433565b60405180910390fd5b610cb881611f50565b610d3781600067ffffffffffffffff811115610cfd577f4e487b7100000000000000000000000000000000000000000000000000000000600052604160045260246000fd5b6040519080825280601f01601f191660200182016040528015610d2f5781602001600182028036833780820191505090505b506000611fcf565b50565b60008111610d7d576040517f08c379a0000000000000000000000000000000000000000000000000000000008152600401610d7490613513565b60405180910390fd5b6000610d87611e50565b90506000610d93611e58565b90508260cb60008381526020019081526020016000206000828254610db89190613656565b9250508190555060c960009054906101000a900473ffffffffffffffffffffffffffffffffffffffff1673ffffffffffffffffffffffffffffffffffffffff16636c74dd518330866040518463ffffffff1660e01b8152600401610e1e939291906132e0565b602060405180830381600087803b158015610e3857600080fd5b505af1158015610e4c573d6000803e3d6000fd5b505050506040513d601f19601f82011682018060405250810190610e709190612ed3565b50828273ffffffffffffffffffffffffffffffffffffffff167fbb7d80264858cda07e4437c9626c74dc728d62f1369a77dcbab476527dff198360405160405180910390a3505050565b60ca5481565b7f000000000000000000000000000000000000000000000000000000000000000073ffffffffffffffffffffffffffffffffffffffff163073ffffffffffffffffffffffffffffffffffffffff161415610f4f576040517f08c379a0000000000000000000000000000000000000000000000000000000008152600401610f4690613413565b60405180910390fd5b7f000000000000000000000000000000000000000000000000000000000000000073ffffffffffffffffffffffffffffffffffffffff16610f8e611ef9565b73ffffffffffffffffffffffffffffffffffffffff1614610fe4576040517f08c379a0000000000000000000000000000000000000000000000000000000008152600401610fdb90613433565b60405180910390fd5b610fed82611f50565b610ff982826001611fcf565b5050565b60007f000000000000000000000000000000000000000000000000000000000000000073ffffffffffffffffffffffffffffffffffffffff163073ffffffffffffffffffffffffffffffffffffffff161461108d576040517f08c379a000000000000000000000000000000000000000000000000000000000815260040161108490613493565b60405180910390fd5b7f360894a13ba1a3210667c828492db98dca3e2076cc3735a920a3ca505d382bbc60001b905090565b600060c960009054906101000a900473ffffffffffffffffffffffffffffffffffffffff1673ffffffffffffffffffffffffffffffffffffffff166370a08231836040518263ffffffff1660e01b8152600401611113919061329c565b60206040518083038186803b15801561112b57600080fd5b505afa15801561113f573d6000803e3d6000fd5b505050506040513d601f19601f820116820180604052508101906111639190612f77565b9050919050565b611172611e50565b73ffffffffffffffffffffffffffffffffffffffff1661119061123b565b73ffffffffffffffffffffffffffffffffffffffff16146111e6576040517f08c379a00000000000000000000000000000000000000000000000000000000081526004016111dd90613553565b60405180910390fd5b6111f0600061214c565b565b600080600160ca546018603c808761120a91906136ac565b61121491906136ac565b61121e91906136ac565b61122891906138af565b6112329190613656565b901c9050919050565b6000609760009054906101000a900473ffffffffffffffffffffffffffffffffffffffff16905090565b60008061127183610539565b905060cb600082815260200190815260200160002054915050919050565b611297611e50565b73ffffffffffffffffffffffffffffffffffffffff166112b561123b565b73ffffffffffffffffffffffffffffffffffffffff161461130b576040517f08c379a000000000000000000000000000000000000000000000000000000000815260040161130290613553565b60405180910390fd5b8060ca8190555050565b6000611327611322611e50565b611e07565b14611367576040517f08c379a000000000000000000000000000000000000000000000000000000000815260040161135e90613453565b60405180910390fd5b600081116113aa576040517f08c379a00000000000000000000000000000000000000000000000000000000081526004016113a1906133d3565b60405180910390fd5b60006113b4611e50565b90508160c960009054906101000a900473ffffffffffffffffffffffffffffffffffffffff1673ffffffffffffffffffffffffffffffffffffffff166370a08231836040518263ffffffff1660e01b8152600401611412919061329c565b60206040518083038186803b15801561142a57600080fd5b505afa15801561143e573d6000803e3d6000fd5b505050506040513d601f19601f820116820180604052508101906114629190612f77565b10156114a3576040517f08c379a000000000000000000000000000000000000000000000000000000000815260040161149a90613473565b60405180910390fd5b60006114ad611e58565b905060006114b9611eb2565b9050600060ce60008573ffffffffffffffffffffffffffffffffffffffff1673ffffffffffffffffffffffffffffffffffffffff16815260200190815260200160002080548060200260200160405190810160405280929190818152602001828054801561154657602002820191906000526020600020905b815481526020019060010190808311611532575b50505050509050600060cf60008673ffffffffffffffffffffffffffffffffffffffff1673ffffffffffffffffffffffffffffffffffffffff1681526020019081526020016000208054806020026020016040519081016040528092919081815260200182805480156115d857602002820191906000526020600020905b8154815260200190600101908083116115c4575b5050505050905060006115eb8386612212565b14156116585760ce60008673ffffffffffffffffffffffffffffffffffffffff1673ffffffffffffffffffffffffffffffffffffffff1681526020019081526020016000208490806001815401808255809150506001900390600052602060002001600090919091909150555b6000836127108661166991906136dd565b6116739190613656565b905060006116818383612212565b11156116ee5760cf60008773ffffffffffffffffffffffffffffffffffffffff1673ffffffffffffffffffffffffffffffffffffffff1681526020019081526020016000208190806001815401808255809150506001900390600052602060002001600090919091909150555b600061178060d280548060200260200160405190810160405280929190818152602001828054801561177557602002820191906000526020600020905b8160009054906101000a900473ffffffffffffffffffffffffffffffffffffffff1673ffffffffffffffffffffffffffffffffffffffff168152602001906001019080831161172b575b5050505050886122b5565b14156117ea5760d2869080600181540180825580915050600190039060005260206000200160009091909190916101000a81548173ffffffffffffffffffffffffffffffffffffffff021916908373ffffffffffffffffffffffffffffffffffffffff1602179055505b8660cd60008873ffffffffffffffffffffffffffffffffffffffff1673ffffffffffffffffffffffffffffffffffffffff16815260200190815260200160002060008282546118399190613656565b925050819055508660cc60008873ffffffffffffffffffffffffffffffffffffffff1673ffffffffffffffffffffffffffffffffffffffff1681526020019081526020016000206000878152602001908152602001600020600086815260200190815260200160002060008282546118b19190613656565b9250508190555060c960009054906101000a900473ffffffffffffffffffffffffffffffffffffffff1673ffffffffffffffffffffffffffffffffffffffff16636c74dd5187308a6040518463ffffffff1660e01b8152600401611917939291906132e0565b602060405180830381600087803b15801561193157600080fd5b505af1158015611945573d6000803e3d6000fd5b505050506040513d601f19601f820116820180604052508101906119699190612ed3565b5050505050505050565b600060cd60008373ffffffffffffffffffffffffffffffffffffffff1673ffffffffffffffffffffffffffffffffffffffff168152602001908152602001600020549050919050565b600060c960009054906101000a900473ffffffffffffffffffffffffffffffffffffffff1673ffffffffffffffffffffffffffffffffffffffff16631b050a9c611a04611e50565b846040518363ffffffff1660e01b8152600401611a22929190613317565b602060405180830381600087803b158015611a3c57600080fd5b505af1158015611a50573d6000803e3d6000fd5b505050506040513d601f19601f82011682018060405250810190611a749190612ed3565b9050919050565b600060019054906101000a900460ff16611aa35760008054906101000a900460ff1615611aac565b611aab612384565b5b611aeb576040517f08c379a0000000000000000000000000000000000000000000000000000000008152600401611ae2906134d3565b60405180910390fd5b60008060019054906101000a900460ff161590508015611b3b576001600060016101000a81548160ff02191690831515021790555060016000806101000a81548160ff0219169083151502179055505b611b43612395565b611b4b6123ee565b8160c960006101000a81548173ffffffffffffffffffffffffffffffffffffffff021916908373ffffffffffffffffffffffffffffffffffffffff160217905550611b96600361128f565b8015611bb75760008060016101000a81548160ff0219169083151502179055505b5050565b600080611bce611bc9611e50565b611e07565b14611c0e576040517f08c379a0000000000000000000000000000000000000000000000000000000008152600401611c0590613453565b60405180910390fd5b6000611c1983610539565b9050611c25848261243f565b91505092915050565b600060c960009054906101000a900473ffffffffffffffffffffffffffffffffffffffff1673ffffffffffffffffffffffffffffffffffffffff1663dd62ed3e611c76611e50565b306040518363ffffffff1660e01b8152600401611c949291906132b7565b60206040518083038186803b158015611cac57600080fd5b505afa158015611cc0573d6000803e3d6000fd5b505050506040513d601f19601f82011682018060405250810190611ce49190612f77565b905090565b611cf1611e50565b73ffffffffffffffffffffffffffffffffffffffff16611d0f61123b565b73ffffffffffffffffffffffffffffffffffffffff1614611d65576040517f08c379a0000000000000000000000000000000000000000000000000000000008152600401611d5c90613553565b60405180910390fd5b600073ffffffffffffffffffffffffffffffffffffffff168173ffffffffffffffffffffffffffffffffffffffff161415611dd5576040517f08c379a0000000000000000000000000000000000000000000000000000000008152600401611dcc906133f3565b60405180910390fd5b611dde8161214c565b50565b60c960009054906101000a900473ffffffffffffffffffffffffffffffffffffffff1681565b600060d160008373ffffffffffffffffffffffffffffffffffffffff1673ffffffffffffffffffffffffffffffffffffffff168152602001908152602001600020549050919050565b600033905090565b60008060ca546018603c8042611e6e91906136ac565b611e7891906136ac565b611e8291906136ac565b611e8c91906136ac565b901c905090565b600080611e9e611e58565b9050611eaa838261243f565b915050919050565b600080600160ca546018603c8042611eca91906136ac565b611ed491906136ac565b611ede91906136ac565b611ee891906138af565b611ef29190613656565b901c905090565b6000611f277f360894a13ba1a3210667c828492db98dca3e2076cc3735a920a3ca505d382bbc60001b612665565b60000160009054906101000a900473ffffffffffffffffffffffffffffffffffffffff16905090565b611f58611e50565b73ffffffffffffffffffffffffffffffffffffffff16611f7661123b565b73ffffffffffffffffffffffffffffffffffffffff1614611fcc576040517f08c379a0000000000000000000000000000000000000000000000000000000008152600401611fc390613553565b60405180910390fd5b50565b611ffb7f4910fdfa16fed3260ed0e7147f7cc6da11a60208b5b9406d12a635614ffd914360001b61266f565b60000160009054906101000a900460ff161561201f5761201a83612679565b612147565b8273ffffffffffffffffffffffffffffffffffffffff166352d1902d6040518163ffffffff1660e01b815260040160206040518083038186803b15801561206557600080fd5b505afa92505050801561209657506040513d601f19601f820116820180604052508101906120939190612efc565b60015b6120d5576040517f08c379a00000000000000000000000000000000000000000000000000000000081526004016120cc906134f3565b60405180910390fd5b7f360894a13ba1a3210667c828492db98dca3e2076cc3735a920a3ca505d382bbc60001b811461213a576040517f08c379a0000000000000000000000000000000000000000000000000000000008152600401612131906134b3565b60405180910390fd5b50612146838383612732565b5b505050565b6000609760009054906101000a900473ffffffffffffffffffffffffffffffffffffffff16905081609760006101000a81548173ffffffffffffffffffffffffffffffffffffffff021916908373ffffffffffffffffffffffffffffffffffffffff1602179055508173ffffffffffffffffffffffffffffffffffffffff168173ffffffffffffffffffffffffffffffffffffffff167f8be0079c531659141344cd1fd0a4f28419497f9722a3daafe3b4186f6b6457e060405160405180910390a35050565b60008083519050600081141561222c5760009150506122af565b60005b818110156122a85783858281518110612271577f4e487b7100000000000000000000000000000000000000000000000000000000600052603260045260246000fd5b602002602001015114156122955760018161228c9190613656565b925050506122af565b80806122a090613866565b91505061222f565b5060009150505b92915050565b6000808351905060008114156122cf57600091505061237e565b60005b81811015612377578373ffffffffffffffffffffffffffffffffffffffff1685828151811061232a577f4e487b7100000000000000000000000000000000000000000000000000000000600052603260045260246000fd5b602002602001015173ffffffffffffffffffffffffffffffffffffffff1614156123645760018161235b9190613656565b9250505061237e565b808061236f90613866565b9150506122d2565b5060009150505b92915050565b600061238f3061275e565b15905090565b600060019054906101000a900460ff166123e4576040517f08c379a00000000000000000000000000000000000000000000000000000000081526004016123db90613593565b60405180910390fd5b6123ec612781565b565b600060019054906101000a900460ff1661243d576040517f08c379a000000000000000000000000000000000000000000000000000000000815260040161243490613593565b60405180910390fd5b565b60008060ce60008573ffffffffffffffffffffffffffffffffffffffff1673ffffffffffffffffffffffffffffffffffffffff1681526020019081526020016000208054806020026020016040519081016040528092919081815260200182805480156124cb57602002820191906000526020600020905b8154815260200190600101908083116124b7575b505050505090506000815114156124e657600091505061265f565b600060d060008673ffffffffffffffffffffffffffffffffffffffff1673ffffffffffffffffffffffffffffffffffffffff16815260200190815260200160002080548060200260200160405190810160405280929190818152602001828054801561257157602002820191906000526020600020905b81548152602001906001019080831161255d575b505050505090506000806000905060008351905060008111156125f1578360018261259c9190613737565b815181106125d3577f4e487b7100000000000000000000000000000000000000000000000000000000600052603260045260246000fd5b602002602001015191506001826125ea9190613656565b9250612636565b8460008151811061262b577f4e487b7100000000000000000000000000000000000000000000000000000000600052603260045260246000fd5b602002602001015192505b8683141561264c5760009550505050505061265f565b6126578884896127e2565b955050505050505b92915050565b6000819050919050565b6000819050919050565b6126828161275e565b6126c1576040517f08c379a00000000000000000000000000000000000000000000000000000000081526004016126b890613533565b60405180910390fd5b806126ee7f360894a13ba1a3210667c828492db98dca3e2076cc3735a920a3ca505d382bbc60001b612665565b60000160006101000a81548173ffffffffffffffffffffffffffffffffffffffff021916908373ffffffffffffffffffffffffffffffffffffffff16021790555050565b61273b83612962565b6000825111806127485750805b156127595761275783836129b1565b505b505050565b6000808273ffffffffffffffffffffffffffffffffffffffff163b119050919050565b600060019054906101000a900460ff166127d0576040517f08c379a00000000000000000000000000000000000000000000000000000000081526004016127c790613593565b60405180910390fd5b6127e06127db611e50565b61214c565b565b6000806000905060008490505b8381101561295657600060d280549050905060008060005b8381101561290857600060d2828154811061284b577f4e487b7100000000000000000000000000000000000000000000000000000000600052603260045260246000fd5b9060005260206000200160009054906101000a900473ffffffffffffffffffffffffffffffffffffffff1690508a73ffffffffffffffffffffffffffffffffffffffff168173ffffffffffffffffffffffffffffffffffffffff1614156128dc5760006128b8878d612a95565b905080856128c69190613656565b945080846128d49190613656565b9350506128f4565b6128e68682612a95565b836128f19190613656565b92505b50808061290090613866565b915050612807565b5060cb600085815260200190815260200160002054818361292991906136ac565b61293391906136dd565b8561293e9190613656565b9450505050808061294e90613866565b9150506127ef565b50809150509392505050565b61296b81612679565b8073ffffffffffffffffffffffffffffffffffffffff167fbc7cd75a20ee27fd9adebab32041f755214dbc6bffa90cc0225b39da2e5c2d3b60405160405180910390a250565b60606129bc8361275e565b6129fb576040517f08c379a00000000000000000000000000000000000000000000000000000000081526004016129f290613573565b60405180910390fd5b6000808473ffffffffffffffffffffffffffffffffffffffff1684604051612a239190613285565b600060405180830381855af49150503d8060008114612a5e576040519150601f19603f3d011682016040523d82523d6000602084013e612a63565b606091505b5091509150612a8b8282604051806060016040528060278152602001613e2460279139612ccd565b9250505092915050565b600080600160ca54612aa79190613656565b61271085612ab591906136dd565b612abf9190613656565b9050600060cf60008573ffffffffffffffffffffffffffffffffffffffff1673ffffffffffffffffffffffffffffffffffffffff168152602001908152602001600020805480602002602001604051908101604052809291908181526020018280548015612b4c57602002820191906000526020600020905b815481526020019060010190808311612b38575b505050505090506000815190506000805b82811015612cbf576000848281518110612ba0577f4e487b7100000000000000000000000000000000000000000000000000000000600052603260045260246000fd5b6020026020010151905085811115612bb85750612cbf565b600061271082612bc891906138af565b905060006127108284612bdb9190613737565b612be591906136ac565b9050600060cc60008c73ffffffffffffffffffffffffffffffffffffffff1673ffffffffffffffffffffffffffffffffffffffff168152602001908152602001600020600083815260200190815260200160002060008481526020019081526020016000205490508b821015612c75578060ca54612c6391906136dd565b86612c6e9190613656565b9550612ca8565b8060018460ca54612c869190613737565b612c909190613656565b612c9a91906136dd565b86612ca59190613656565b95505b505050508080612cb790613866565b915050612b5d565b508094505050505092915050565b60608315612cdd57829050612d2d565b600083511115612cf05782518084602001fd5b816040517f08c379a0000000000000000000000000000000000000000000000000000000008152600401612d249190613391565b60405180910390fd5b9392505050565b6000612d47612d42846135f3565b6135ce565b905082815260208101848484011115612d5f57600080fd5b612d6a8482856137f3565b509392505050565b600081359050612d8181613db0565b92915050565b600081519050612d9681613dc7565b92915050565b600081519050612dab81613dde565b92915050565b600082601f830112612dc257600080fd5b8135612dd2848260208601612d34565b91505092915050565b600081359050612dea81613df5565b92915050565b600081359050612dff81613e0c565b92915050565b600081519050612e1481613e0c565b92915050565b600060208284031215612e2c57600080fd5b6000612e3a84828501612d72565b91505092915050565b60008060408385031215612e5657600080fd5b6000612e6485828601612d72565b925050602083013567ffffffffffffffff811115612e8157600080fd5b612e8d85828601612db1565b9150509250929050565b60008060408385031215612eaa57600080fd5b6000612eb885828601612d72565b9250506020612ec985828601612df0565b9150509250929050565b600060208284031215612ee557600080fd5b6000612ef384828501612d87565b91505092915050565b600060208284031215612f0e57600080fd5b6000612f1c84828501612d9c565b91505092915050565b600060208284031215612f3757600080fd5b6000612f4584828501612ddb565b91505092915050565b600060208284031215612f6057600080fd5b6000612f6e84828501612df0565b91505092915050565b600060208284031215612f8957600080fd5b6000612f9784828501612e05565b91505092915050565b612fa98161376b565b82525050565b612fb88161377d565b82525050565b612fc781613789565b82525050565b6000612fd882613624565b612fe2818561363a565b9350612ff2818560208601613802565b80840191505092915050565b613007816137cf565b82525050565b60006130188261362f565b6130228185613645565b9350613032818560208601613802565b61303b8161396d565b840191505092915050565b6000613053601283613645565b915061305e8261397e565b602082019050919050565b6000613076600a83613645565b9150613081826139a7565b602082019050919050565b6000613099602683613645565b91506130a4826139d0565b604082019050919050565b60006130bc602c83613645565b91506130c782613a1f565b604082019050919050565b60006130df602c83613645565b91506130ea82613a6e565b604082019050919050565b6000613102602283613645565b915061310d82613abd565b604082019050919050565b6000613125601283613645565b915061313082613b0c565b602082019050919050565b6000613148603883613645565b915061315382613b35565b604082019050919050565b600061316b602983613645565b915061317682613b84565b604082019050919050565b600061318e602e83613645565b915061319982613bd3565b604082019050919050565b60006131b1602e83613645565b91506131bc82613c22565b604082019050919050565b60006131d4600b83613645565b91506131df82613c71565b602082019050919050565b60006131f7602d83613645565b915061320282613c9a565b604082019050919050565b600061321a602083613645565b915061322582613ce9565b602082019050919050565b600061323d602683613645565b915061324882613d12565b604082019050919050565b6000613260602b83613645565b915061326b82613d61565b604082019050919050565b61327f816137c5565b82525050565b60006132918284612fcd565b915081905092915050565b60006020820190506132b16000830184612fa0565b92915050565b60006040820190506132cc6000830185612fa0565b6132d96020830184612fa0565b9392505050565b60006060820190506132f56000830186612fa0565b6133026020830185612fa0565b61330f6040830184613276565b949350505050565b600060408201905061332c6000830185612fa0565b6133396020830184613276565b9392505050565b60006020820190506133556000830184612faf565b92915050565b60006020820190506133706000830184612fbe565b92915050565b600060208201905061338b6000830184612ffe565b92915050565b600060208201905081810360008301526133ab818461300d565b905092915050565b600060208201905081810360008301526133cc81613046565b9050919050565b600060208201905081810360008301526133ec81613069565b9050919050565b6000602082019050818103600083015261340c8161308c565b9050919050565b6000602082019050818103600083015261342c816130af565b9050919050565b6000602082019050818103600083015261344c816130d2565b9050919050565b6000602082019050818103600083015261346c816130f5565b9050919050565b6000602082019050818103600083015261348c81613118565b9050919050565b600060208201905081810360008301526134ac8161313b565b9050919050565b600060208201905081810360008301526134cc8161315e565b9050919050565b600060208201905081810360008301526134ec81613181565b9050919050565b6000602082019050818103600083015261350c816131a4565b9050919050565b6000602082019050818103600083015261352c816131c7565b9050919050565b6000602082019050818103600083015261354c816131ea565b9050919050565b6000602082019050818103600083015261356c8161320d565b9050919050565b6000602082019050818103600083015261358c81613230565b9050919050565b600060208201905081810360008301526135ac81613253565b9050919050565b60006020820190506135c86000830184613276565b92915050565b60006135d86135e9565b90506135e48282613835565b919050565b6000604051905090565b600067ffffffffffffffff82111561360e5761360d61393e565b5b6136178261396d565b9050602081019050919050565b600081519050919050565b600081519050919050565b600081905092915050565b600082825260208201905092915050565b6000613661826137c5565b915061366c836137c5565b9250827fffffffffffffffffffffffffffffffffffffffffffffffffffffffffffffffff038211156136a1576136a06138e0565b5b828201905092915050565b60006136b7826137c5565b91506136c2836137c5565b9250826136d2576136d161390f565b5b828204905092915050565b60006136e8826137c5565b91506136f3836137c5565b9250817fffffffffffffffffffffffffffffffffffffffffffffffffffffffffffffffff048311821515161561372c5761372b6138e0565b5b828202905092915050565b6000613742826137c5565b915061374d836137c5565b9250828210156137605761375f6138e0565b5b828203905092915050565b6000613776826137a5565b9050919050565b60008115159050919050565b6000819050919050565b600061379e8261376b565b9050919050565b600073ffffffffffffffffffffffffffffffffffffffff82169050919050565b6000819050919050565b60006137da826137e1565b9050919050565b60006137ec826137a5565b9050919050565b82818337600083830152505050565b60005b83811015613820578082015181840152602081019050613805565b8381111561382f576000848401525b50505050565b61383e8261396d565b810181811067ffffffffffffffff8211171561385d5761385c61393e565b5b80604052505050565b6000613871826137c5565b91507fffffffffffffffffffffffffffffffffffffffffffffffffffffffffffffffff8214156138a4576138a36138e0565b5b600182019050919050565b60006138ba826137c5565b91506138c5836137c5565b9250826138d5576138d461390f565b5b828206905092915050565b7f4e487b7100000000000000000000000000000000000000000000000000000000600052601160045260246000fd5b7f4e487b7100000000000000000000000000000000000000000000000000000000600052601260045260246000fd5b7f4e487b7100000000000000000000000000000000000000000000000000000000600052604160045260246000fd5b6000601f19601f8301169050919050565b7f4f776e657220686173206e6f207374616b650000000000000000000000000000600082015250565b7f5374616b65206973203000000000000000000000000000000000000000000000600082015250565b7f4f776e61626c653a206e6577206f776e657220697320746865207a65726f206160008201527f6464726573730000000000000000000000000000000000000000000000000000602082015250565b7f46756e6374696f6e206d7573742062652063616c6c6564207468726f7567682060008201527f64656c656761746563616c6c0000000000000000000000000000000000000000602082015250565b7f46756e6374696f6e206d7573742062652063616c6c6564207468726f7567682060008201527f6163746976652070726f78790000000000000000000000000000000000000000602082015250565b7f4163636f756e7420626c6f636b656420756e74696c206e65787420706572696f60008201527f642e000000000000000000000000000000000000000000000000000000000000602082015250565b7f496e73756666696369656e742066756e64730000000000000000000000000000600082015250565b7f555550535570677261646561626c653a206d757374206e6f742062652063616c60008201527f6c6564207468726f7567682064656c656761746563616c6c0000000000000000602082015250565b7f45524331393637557067726164653a20756e737570706f727465642070726f7860008201527f6961626c65555549440000000000000000000000000000000000000000000000602082015250565b7f496e697469616c697a61626c653a20636f6e747261637420697320616c72656160008201527f647920696e697469616c697a6564000000000000000000000000000000000000602082015250565b7f45524331393637557067726164653a206e657720696d706c656d656e7461746960008201527f6f6e206973206e6f742055555053000000000000000000000000000000000000602082015250565b7f426f756e74792069732030000000000000000000000000000000000000000000600082015250565b7f455243313936373a206e657720696d706c656d656e746174696f6e206973206e60008201527f6f74206120636f6e747261637400000000000000000000000000000000000000602082015250565b7f4f776e61626c653a2063616c6c6572206973206e6f7420746865206f776e6572600082015250565b7f416464726573733a2064656c65676174652063616c6c20746f206e6f6e2d636f60008201527f6e74726163740000000000000000000000000000000000000000000000000000602082015250565b7f496e697469616c697a61626c653a20636f6e7472616374206973206e6f74206960008201527f6e697469616c697a696e67000000000000000000000000000000000000000000602082015250565b613db98161376b565b8114613dc457600080fd5b50565b613dd08161377d565b8114613ddb57600080fd5b50565b613de781613789565b8114613df257600080fd5b50565b613dfe81613793565b8114613e0957600080fd5b50565b613e15816137c5565b8114613e2057600080fd5b5056fe416464726573733a206c6f772d6c6576656c2064656c65676174652063616c6c206661696c6564a264697066735822122083eb98f18b692deaaeace2b87039ad87764ff97c1ae401c9c8bac1b5924c31ed64736f6c63430008020033",
  "linkReferences": {},
  "deployedLinkReferences": {}
}