{
  "_format": "hh-sol-artifact-1",
  "contractName": "Token",
  "sourceName": "contracts/Token.sol",
  "abi": [
    {
      "anonymous": false,
      "inputs": [
        {
          "indexed": false,
          "internalType": "address",
          "name": "previousAdmin",
          "type": "address"
        },
        {
          "indexed": false,
          "internalType": "address",
          "name": "newAdmin",
          "type": "address"
        }
      ],
      "name": "AdminChanged",
      "type": "event"
    },
    {
      "anonymous": false,
      "inputs": [
        {
          "indexed": true,
          "internalType": "address",
          "name": "owner",
          "type": "address"
        },
        {
          "indexed": true,
          "internalType": "address",
          "name": "spender",
          "type": "address"
        },
        {
          "indexed": false,
          "internalType": "uint256",
          "name": "value",
          "type": "uint256"
        }
      ],
      "name": "Approval",
      "type": "event"
    },
    {
      "anonymous": false,
      "inputs": [
        {
          "indexed": true,
          "internalType": "address",
          "name": "beacon",
          "type": "address"
        }
      ],
      "name": "BeaconUpgraded",
      "type": "event"
    },
    {
      "anonymous": false,
      "inputs": [
        {
          "indexed": true,
          "internalType": "address",
          "name": "previousOwner",
          "type": "address"
        },
        {
          "indexed": true,
          "internalType": "address",
          "name": "newOwner",
          "type": "address"
        }
      ],
      "name": "OwnershipTransferred",
      "type": "event"
    },
    {
      "anonymous": false,
      "inputs": [
        {
          "indexed": true,
          "internalType": "address",
          "name": "from",
          "type": "address"
        },
        {
          "indexed": true,
          "internalType": "address",
          "name": "to",
          "type": "address"
        },
        {
          "indexed": false,
          "internalType": "uint256",
          "name": "value",
          "type": "uint256"
        }
      ],
      "name": "Transfer",
      "type": "event"
    },
    {
      "anonymous": false,
      "inputs": [
        {
          "indexed": true,
          "internalType": "address",
          "name": "implementation",
          "type": "address"
        }
      ],
      "name": "Upgraded",
      "type": "event"
    },
    {
      "inputs": [
        {
          "internalType": "address",
          "name": "owner",
          "type": "address"
        },
        {
          "internalType": "address",
          "name": "spender",
          "type": "address"
        }
      ],
      "name": "allowance",
      "outputs": [
        {
          "internalType": "uint256",
          "name": "",
          "type": "uint256"
        }
      ],
      "stateMutability": "view",
      "type": "function"
    },
    {
      "inputs": [
        {
          "internalType": "address",
          "name": "spender",
          "type": "address"
        },
        {
          "internalType": "uint256",
          "name": "amount",
          "type": "uint256"
        }
      ],
      "name": "approve",
      "outputs": [
        {
          "internalType": "bool",
          "name": "",
          "type": "bool"
        }
      ],
      "stateMutability": "nonpayable",
      "type": "function"
    },
    {
      "inputs": [
        {
          "internalType": "address",
          "name": "account",
          "type": "address"
        }
      ],
      "name": "balanceOf",
      "outputs": [
        {
          "internalType": "uint256",
          "name": "",
          "type": "uint256"
        }
      ],
      "stateMutability": "view",
      "type": "function"
    },
    {
      "inputs": [],
      "name": "decimals",
      "outputs": [
        {
          "internalType": "uint8",
          "name": "",
          "type": "uint8"
        }
      ],
      "stateMutability": "view",
      "type": "function"
    },
    {
      "inputs": [
        {
          "internalType": "address",
          "name": "spender",
          "type": "address"
        },
        {
          "internalType": "uint256",
          "name": "subtractedValue",
          "type": "uint256"
        }
      ],
      "name": "decreaseAllowance",
      "outputs": [
        {
          "internalType": "bool",
          "name": "",
          "type": "bool"
        }
      ],
      "stateMutability": "nonpayable",
      "type": "function"
    },
    {
      "inputs": [
        {
          "internalType": "address",
          "name": "spender",
          "type": "address"
        },
        {
          "internalType": "uint256",
          "name": "addedValue",
          "type": "uint256"
        }
      ],
      "name": "increaseAllowance",
      "outputs": [
        {
          "internalType": "bool",
          "name": "",
          "type": "bool"
        }
      ],
      "stateMutability": "nonpayable",
      "type": "function"
    },
    {
      "inputs": [],
      "name": "initialize",
      "outputs": [],
      "stateMutability": "nonpayable",
      "type": "function"
    },
    {
      "inputs": [
        {
          "internalType": "address",
          "name": "account",
          "type": "address"
        }
      ],
      "name": "isStakeContract",
      "outputs": [
        {
          "internalType": "bool",
          "name": "",
          "type": "bool"
        }
      ],
      "stateMutability": "view",
      "type": "function"
    },
    {
      "inputs": [],
      "name": "name",
      "outputs": [
        {
          "internalType": "string",
          "name": "",
          "type": "string"
        }
      ],
      "stateMutability": "view",
      "type": "function"
    },
    {
      "inputs": [],
      "name": "owner",
      "outputs": [
        {
          "internalType": "address",
          "name": "",
          "type": "address"
        }
      ],
      "stateMutability": "view",
      "type": "function"
    },
    {
      "inputs": [],
      "name": "proxiableUUID",
      "outputs": [
        {
          "internalType": "bytes32",
          "name": "",
          "type": "bytes32"
        }
      ],
      "stateMutability": "view",
      "type": "function"
    },
    {
      "inputs": [],
      "name": "renounceOwnership",
      "outputs": [],
      "stateMutability": "nonpayable",
      "type": "function"
    },
    {
      "inputs": [
        {
          "internalType": "address",
          "name": "account",
          "type": "address"
        }
      ],
      "name": "setStakeContract",
      "outputs": [],
      "stateMutability": "nonpayable",
      "type": "function"
    },
    {
      "inputs": [
        {
          "internalType": "address",
          "name": "owner",
          "type": "address"
        },
        {
          "internalType": "uint256",
          "name": "amount",
          "type": "uint256"
        }
      ],
      "name": "stakeApprove",
      "outputs": [
        {
          "internalType": "bool",
          "name": "",
          "type": "bool"
        }
      ],
      "stateMutability": "nonpayable",
      "type": "function"
    },
    {
      "inputs": [],
      "name": "stakeContract",
      "outputs": [
        {
          "internalType": "address",
          "name": "",
          "type": "address"
        }
      ],
      "stateMutability": "view",
      "type": "function"
    },
    {
      "inputs": [
        {
          "internalType": "address",
          "name": "from",
          "type": "address"
        },
        {
          "internalType": "address",
          "name": "to",
          "type": "address"
        },
        {
          "internalType": "uint256",
          "name": "amount",
          "type": "uint256"
        }
      ],
      "name": "stakeTransfer",
      "outputs": [
        {
          "internalType": "bool",
          "name": "",
          "type": "bool"
        }
      ],
      "stateMutability": "nonpayable",
      "type": "function"
    },
    {
      "inputs": [],
      "name": "symbol",
      "outputs": [
        {
          "internalType": "string",
          "name": "",
          "type": "string"
        }
      ],
      "stateMutability": "view",
      "type": "function"
    },
    {
      "inputs": [],
      "name": "totalSupply",
      "outputs": [
        {
          "internalType": "uint256",
          "name": "",
          "type": "uint256"
        }
      ],
      "stateMutability": "view",
      "type": "function"
    },
    {
      "inputs": [
        {
          "internalType": "address",
          "name": "to",
          "type": "address"
        },
        {
          "internalType": "uint256",
          "name": "amount",
          "type": "uint256"
        }
      ],
      "name": "transfer",
      "outputs": [
        {
          "internalType": "bool",
          "name": "",
          "type": "bool"
        }
      ],
      "stateMutability": "nonpayable",
      "type": "function"
    },
    {
      "inputs": [
        {
          "internalType": "address",
          "name": "from",
          "type": "address"
        },
        {
          "internalType": "address",
          "name": "to",
          "type": "address"
        },
        {
          "internalType": "uint256",
          "name": "amount",
          "type": "uint256"
        }
      ],
      "name": "transferFrom",
      "outputs": [
        {
          "internalType": "bool",
          "name": "",
          "type": "bool"
        }
      ],
      "stateMutability": "nonpayable",
      "type": "function"
    },
    {
      "inputs": [
        {
          "internalType": "address",
          "name": "newOwner",
          "type": "address"
        }
      ],
      "name": "transferOwnership",
      "outputs": [],
      "stateMutability": "nonpayable",
      "type": "function"
    },
    {
      "inputs": [
        {
          "internalType": "address",
          "name": "newImplementation",
          "type": "address"
        }
      ],
      "name": "upgradeTo",
      "outputs": [],
      "stateMutability": "nonpayable",
      "type": "function"
    },
    {
      "inputs": [
        {
          "internalType": "address",
          "name": "newImplementation",
          "type": "address"
        },
        {
          "internalType": "bytes",
          "name": "data",
          "type": "bytes"
        }
      ],
      "name": "upgradeToAndCall",
      "outputs": [],
      "stateMutability": "payable",
      "type": "function"
    }
  ],
  "bytecode": "0x60a06040523073ffffffffffffffffffffffffffffffffffffffff1660809073ffffffffffffffffffffffffffffffffffffffff1660601b81525034801561004657600080fd5b5060805160601c6132d06100816000396000818161073b015281816107ca0152818161099401528181610a230152610b9401526132d06000f3fe6080604052600436106101405760003560e01c806352d1902d116100b6578063920a4ddc1161006f578063920a4ddc1461045157806395d89b411461048e578063a457c2d7146104b9578063a9059cbb146104f6578063dd62ed3e14610533578063f2fde38b1461057057610140565b806352d1902d146103535780636c74dd511461037e57806370a08231146103bb578063715018a6146103f85780638129fc1c1461040f5780638da5cb5b1461042657610140565b806323b872dd1161010857806323b872dd14610240578063313ce5671461027d5780633659cfe6146102a857806339509351146102d15780634f1ef2861461030e578063509484d51461032a57610140565b806306fdde0314610145578063095ea7b31461017057806318160ddd146101ad5780631a186227146101d85780631b050a9c14610203575b600080fd5b34801561015157600080fd5b5061015a610599565b6040516101679190612742565b60405180910390f35b34801561017c57600080fd5b5061019760048036038101906101929190612304565b61062b565b6040516101a4919061270c565b60405180910390f35b3480156101b957600080fd5b506101c261064e565b6040516101cf91906129e4565b60405180910390f35b3480156101e457600080fd5b506101ed610658565b6040516101fa91906126f1565b60405180910390f35b34801561020f57600080fd5b5061022a60048036038101906102259190612304565b61067f565b604051610237919061270c565b60405180910390f35b34801561024c57600080fd5b5061026760048036038101906102629190612261565b610701565b604051610274919061270c565b60405180910390f35b34801561028957600080fd5b50610292610730565b60405161029f91906129ff565b60405180910390f35b3480156102b457600080fd5b506102cf60048036038101906102ca91906121fc565b610739565b005b3480156102dd57600080fd5b506102f860048036038101906102f39190612304565b6108e8565b604051610305919061270c565b60405180910390f35b610328600480360381019061032391906122b0565b610992565b005b34801561033657600080fd5b50610351600480360381019061034c91906121fc565b610acf565b005b34801561035f57600080fd5b50610368610b90565b6040516103759190612727565b60405180910390f35b34801561038a57600080fd5b506103a560048036038101906103a09190612261565b610c49565b6040516103b2919061270c565b60405180910390f35b3480156103c757600080fd5b506103e260048036038101906103dd91906121fc565b610ca9565b6040516103ef91906129e4565b60405180910390f35b34801561040457600080fd5b5061040d610cf2565b005b34801561041b57600080fd5b50610424610d7a565b005b34801561043257600080fd5b5061043b610ef8565b60405161044891906126f1565b60405180910390f35b34801561045d57600080fd5b50610478600480360381019061047391906121fc565b610f22565b604051610485919061270c565b60405180910390f35b34801561049a57600080fd5b506104a3610f7d565b6040516104b09190612742565b60405180910390f35b3480156104c557600080fd5b506104e060048036038101906104db9190612304565b61100f565b6040516104ed919061270c565b60405180910390f35b34801561050257600080fd5b5061051d60048036038101906105189190612304565b6110f9565b60405161052a919061270c565b60405180910390f35b34801561053f57600080fd5b5061055a60048036038101906105559190612225565b61111c565b60405161056791906129e4565b60405180910390f35b34801561057c57600080fd5b50610597600480360381019061059291906121fc565b6111a3565b005b6060603680546105a890612b99565b80601f01602080910402602001604051908101604052809291908181526020018280546105d490612b99565b80156106215780601f106105f657610100808354040283529160200191610621565b820191906000526020600020905b81548152906001019060200180831161060457829003601f168201915b5050505050905090565b60008061063661129b565b90506106438185856112a3565b600191505092915050565b6000603554905090565b61010060009054906101000a900473ffffffffffffffffffffffffffffffffffffffff1681565b600061068a33610f22565b6106c9576040517f08c379a00000000000000000000000000000000000000000000000000000000081526004016106c0906127c4565b60405180910390fd5b6106f78361010060009054906101000a900473ffffffffffffffffffffffffffffffffffffffff16846112a3565b6001905092915050565b60008061070c61129b565b905061071985828561146e565b6107248585856114fa565b60019150509392505050565b60006012905090565b7f000000000000000000000000000000000000000000000000000000000000000073ffffffffffffffffffffffffffffffffffffffff163073ffffffffffffffffffffffffffffffffffffffff1614156107c8576040517f08c379a00000000000000000000000000000000000000000000000000000000081526004016107bf906127e4565b60405180910390fd5b7f000000000000000000000000000000000000000000000000000000000000000073ffffffffffffffffffffffffffffffffffffffff1661080761177e565b73ffffffffffffffffffffffffffffffffffffffff161461085d576040517f08c379a000000000000000000000000000000000000000000000000000000000815260040161085490612844565b60405180910390fd5b610866816117d5565b6108e581600067ffffffffffffffff8111156108ab577f4e487b7100000000000000000000000000000000000000000000000000000000600052604160045260246000fd5b6040519080825280601f01601f1916602001820160405280156108dd5781602001600182028036833780820191505090505b506000611854565b50565b6000806108f361129b565b9050610987818585603460008673ffffffffffffffffffffffffffffffffffffffff1673ffffffffffffffffffffffffffffffffffffffff16815260200190815260200160002060008973ffffffffffffffffffffffffffffffffffffffff1673ffffffffffffffffffffffffffffffffffffffff168152602001908152602001600020546109829190612aa2565b6112a3565b600191505092915050565b7f000000000000000000000000000000000000000000000000000000000000000073ffffffffffffffffffffffffffffffffffffffff163073ffffffffffffffffffffffffffffffffffffffff161415610a21576040517f08c379a0000000000000000000000000000000000000000000000000000000008152600401610a18906127e4565b60405180910390fd5b7f000000000000000000000000000000000000000000000000000000000000000073ffffffffffffffffffffffffffffffffffffffff16610a6061177e565b73ffffffffffffffffffffffffffffffffffffffff1614610ab6576040517f08c379a0000000000000000000000000000000000000000000000000000000008152600401610aad90612844565b60405180910390fd5b610abf826117d5565b610acb82826001611854565b5050565b610ad761129b565b73ffffffffffffffffffffffffffffffffffffffff16610af5610ef8565b73ffffffffffffffffffffffffffffffffffffffff1614610b4b576040517f08c379a0000000000000000000000000000000000000000000000000000000008152600401610b4290612904565b60405180910390fd5b8061010060006101000a81548173ffffffffffffffffffffffffffffffffffffffff021916908373ffffffffffffffffffffffffffffffffffffffff16021790555050565b60007f000000000000000000000000000000000000000000000000000000000000000073ffffffffffffffffffffffffffffffffffffffff163073ffffffffffffffffffffffffffffffffffffffff1614610c20576040517f08c379a0000000000000000000000000000000000000000000000000000000008152600401610c1790612864565b60405180910390fd5b7f360894a13ba1a3210667c828492db98dca3e2076cc3735a920a3ca505d382bbc60001b905090565b6000610c5433610f22565b610c93576040517f08c379a0000000000000000000000000000000000000000000000000000000008152600401610c8a906127c4565b60405180910390fd5b610c9e8484846114fa565b600190509392505050565b6000603360008373ffffffffffffffffffffffffffffffffffffffff1673ffffffffffffffffffffffffffffffffffffffff168152602001908152602001600020549050919050565b610cfa61129b565b73ffffffffffffffffffffffffffffffffffffffff16610d18610ef8565b73ffffffffffffffffffffffffffffffffffffffff1614610d6e576040517f08c379a0000000000000000000000000000000000000000000000000000000008152600401610d6590612904565b60405180910390fd5b610d7860006119d1565b565b600060019054906101000a900460ff16610da25760008054906101000a900460ff1615610dab565b610daa611a97565b5b610dea576040517f08c379a0000000000000000000000000000000000000000000000000000000008152600401610de1906128a4565b60405180910390fd5b60008060019054906101000a900460ff161590508015610e3a576001600060016101000a81548160ff02191690831515021790555060016000806101000a81548160ff0219169083151502179055505b610eae6040518060400160405280600581526020017f47494654590000000000000000000000000000000000000000000000000000008152506040518060400160405280600581526020017f2447465459000000000000000000000000000000000000000000000000000000815250611aa8565b610eb6611b05565b610ebe611b5e565b610ed4336b033b2e3c9fd0803ce8000000611baf565b8015610ef55760008060016101000a81548160ff0219169083151502179055505b50565b600060c960009054906101000a900473ffffffffffffffffffffffffffffffffffffffff16905090565b600061010060009054906101000a900473ffffffffffffffffffffffffffffffffffffffff1673ffffffffffffffffffffffffffffffffffffffff168273ffffffffffffffffffffffffffffffffffffffff16149050919050565b606060378054610f8c90612b99565b80601f0160208091040260200160405190810160405280929190818152602001828054610fb890612b99565b80156110055780601f10610fda57610100808354040283529160200191611005565b820191906000526020600020905b815481529060010190602001808311610fe857829003601f168201915b5050505050905090565b60008061101a61129b565b90506000603460008373ffffffffffffffffffffffffffffffffffffffff1673ffffffffffffffffffffffffffffffffffffffff16815260200190815260200160002060008673ffffffffffffffffffffffffffffffffffffffff1673ffffffffffffffffffffffffffffffffffffffff168152602001908152602001600020549050838110156110e0576040517f08c379a00000000000000000000000000000000000000000000000000000000081526004016110d7906129a4565b60405180910390fd5b6110ed82868684036112a3565b60019250505092915050565b60008061110461129b565b90506111118185856114fa565b600191505092915050565b6000603460008473ffffffffffffffffffffffffffffffffffffffff1673ffffffffffffffffffffffffffffffffffffffff16815260200190815260200160002060008373ffffffffffffffffffffffffffffffffffffffff1673ffffffffffffffffffffffffffffffffffffffff16815260200190815260200160002054905092915050565b6111ab61129b565b73ffffffffffffffffffffffffffffffffffffffff166111c9610ef8565b73ffffffffffffffffffffffffffffffffffffffff161461121f576040517f08c379a000000000000000000000000000000000000000000000000000000000815260040161121690612904565b60405180910390fd5b600073ffffffffffffffffffffffffffffffffffffffff168173ffffffffffffffffffffffffffffffffffffffff16141561128f576040517f08c379a000000000000000000000000000000000000000000000000000000000815260040161128690612784565b60405180910390fd5b611298816119d1565b50565b600033905090565b600073ffffffffffffffffffffffffffffffffffffffff168373ffffffffffffffffffffffffffffffffffffffff161415611313576040517f08c379a000000000000000000000000000000000000000000000000000000000815260040161130a90612964565b60405180910390fd5b600073ffffffffffffffffffffffffffffffffffffffff168273ffffffffffffffffffffffffffffffffffffffff161415611383576040517f08c379a000000000000000000000000000000000000000000000000000000000815260040161137a906127a4565b60405180910390fd5b80603460008573ffffffffffffffffffffffffffffffffffffffff1673ffffffffffffffffffffffffffffffffffffffff16815260200190815260200160002060008473ffffffffffffffffffffffffffffffffffffffff1673ffffffffffffffffffffffffffffffffffffffff168152602001908152602001600020819055508173ffffffffffffffffffffffffffffffffffffffff168373ffffffffffffffffffffffffffffffffffffffff167f8c5be1e5ebec7d5bd14f71427d1e84f3dd0314c0f7b2291e5b200ac8c7c3b9258360405161146191906129e4565b60405180910390a3505050565b600061147a848461111c565b90507fffffffffffffffffffffffffffffffffffffffffffffffffffffffffffffffff81146114f457818110156114e6576040517f08c379a00000000000000000000000000000000000000000000000000000000081526004016114dd90612804565b60405180910390fd5b6114f384848484036112a3565b5b50505050565b600073ffffffffffffffffffffffffffffffffffffffff168373ffffffffffffffffffffffffffffffffffffffff16141561156a576040517f08c379a000000000000000000000000000000000000000000000000000000000815260040161156190612944565b60405180910390fd5b600073ffffffffffffffffffffffffffffffffffffffff168273ffffffffffffffffffffffffffffffffffffffff1614156115da576040517f08c379a00000000000000000000000000000000000000000000000000000000081526004016115d190612764565b60405180910390fd5b6115e5838383611d10565b6000603360008573ffffffffffffffffffffffffffffffffffffffff1673ffffffffffffffffffffffffffffffffffffffff1681526020019081526020016000205490508181101561166c576040517f08c379a000000000000000000000000000000000000000000000000000000000815260040161166390612824565b60405180910390fd5b818103603360008673ffffffffffffffffffffffffffffffffffffffff1673ffffffffffffffffffffffffffffffffffffffff1681526020019081526020016000208190555081603360008573ffffffffffffffffffffffffffffffffffffffff1673ffffffffffffffffffffffffffffffffffffffff16815260200190815260200160002060008282546117019190612aa2565b925050819055508273ffffffffffffffffffffffffffffffffffffffff168473ffffffffffffffffffffffffffffffffffffffff167fddf252ad1be2c89b69c2b068fc378daa952ba7f163c4a11628f55a4df523b3ef8460405161176591906129e4565b60405180910390a3611778848484611d15565b50505050565b60006117ac7f360894a13ba1a3210667c828492db98dca3e2076cc3735a920a3ca505d382bbc60001b611d1a565b60000160009054906101000a900473ffffffffffffffffffffffffffffffffffffffff16905090565b6117dd61129b565b73ffffffffffffffffffffffffffffffffffffffff166117fb610ef8565b73ffffffffffffffffffffffffffffffffffffffff1614611851576040517f08c379a000000000000000000000000000000000000000000000000000000000815260040161184890612904565b60405180910390fd5b50565b6118807f4910fdfa16fed3260ed0e7147f7cc6da11a60208b5b9406d12a635614ffd914360001b611d24565b60000160009054906101000a900460ff16156118a45761189f83611d2e565b6119cc565b8273ffffffffffffffffffffffffffffffffffffffff166352d1902d6040518163ffffffff1660e01b815260040160206040518083038186803b1580156118ea57600080fd5b505afa92505050801561191b57506040513d601f19601f820116820180604052508101906119189190612340565b60015b61195a576040517f08c379a0000000000000000000000000000000000000000000000000000000008152600401611951906128c4565b60405180910390fd5b7f360894a13ba1a3210667c828492db98dca3e2076cc3735a920a3ca505d382bbc60001b81146119bf576040517f08c379a00000000000000000000000000000000000000000000000000000000081526004016119b690612884565b60405180910390fd5b506119cb838383611de7565b5b505050565b600060c960009054906101000a900473ffffffffffffffffffffffffffffffffffffffff1690508160c960006101000a81548173ffffffffffffffffffffffffffffffffffffffff021916908373ffffffffffffffffffffffffffffffffffffffff1602179055508173ffffffffffffffffffffffffffffffffffffffff168173ffffffffffffffffffffffffffffffffffffffff167f8be0079c531659141344cd1fd0a4f28419497f9722a3daafe3b4186f6b6457e060405160405180910390a35050565b6000611aa230611e13565b15905090565b600060019054906101000a900460ff16611af7576040517f08c379a0000000000000000000000000000000000000000000000000000000008152600401611aee90612984565b60405180910390fd5b611b018282611e36565b5050565b600060019054906101000a900460ff16611b54576040517f08c379a0000000000000000000000000000000000000000000000000000000008152600401611b4b90612984565b60405180910390fd5b611b5c611eb7565b565b600060019054906101000a900460ff16611bad576040517f08c379a0000000000000000000000000000000000000000000000000000000008152600401611ba490612984565b60405180910390fd5b565b600073ffffffffffffffffffffffffffffffffffffffff168273ffffffffffffffffffffffffffffffffffffffff161415611c1f576040517f08c379a0000000000000000000000000000000000000000000000000000000008152600401611c16906129c4565b60405180910390fd5b611c2b60008383611d10565b8060356000828254611c3d9190612aa2565b9250508190555080603360008473ffffffffffffffffffffffffffffffffffffffff1673ffffffffffffffffffffffffffffffffffffffff1681526020019081526020016000206000828254611c939190612aa2565b925050819055508173ffffffffffffffffffffffffffffffffffffffff16600073ffffffffffffffffffffffffffffffffffffffff167fddf252ad1be2c89b69c2b068fc378daa952ba7f163c4a11628f55a4df523b3ef83604051611cf891906129e4565b60405180910390a3611d0c60008383611d15565b5050565b505050565b505050565b6000819050919050565b6000819050919050565b611d3781611e13565b611d76576040517f08c379a0000000000000000000000000000000000000000000000000000000008152600401611d6d906128e4565b60405180910390fd5b80611da37f360894a13ba1a3210667c828492db98dca3e2076cc3735a920a3ca505d382bbc60001b611d1a565b60000160006101000a81548173ffffffffffffffffffffffffffffffffffffffff021916908373ffffffffffffffffffffffffffffffffffffffff16021790555050565b611df083611f18565b600082511180611dfd5750805b15611e0e57611e0c8383611f67565b505b505050565b6000808273ffffffffffffffffffffffffffffffffffffffff163b119050919050565b600060019054906101000a900460ff16611e85576040517f08c379a0000000000000000000000000000000000000000000000000000000008152600401611e7c90612984565b60405180910390fd5b8160369080519060200190611e9b9291906120b2565b508060379080519060200190611eb29291906120b2565b505050565b600060019054906101000a900460ff16611f06576040517f08c379a0000000000000000000000000000000000000000000000000000000008152600401611efd90612984565b60405180910390fd5b611f16611f1161129b565b6119d1565b565b611f2181611d2e565b8073ffffffffffffffffffffffffffffffffffffffff167fbc7cd75a20ee27fd9adebab32041f755214dbc6bffa90cc0225b39da2e5c2d3b60405160405180910390a250565b6060611f7283611e13565b611fb1576040517f08c379a0000000000000000000000000000000000000000000000000000000008152600401611fa890612924565b60405180910390fd5b6000808473ffffffffffffffffffffffffffffffffffffffff1684604051611fd991906126da565b600060405180830381855af49150503d8060008114612014576040519150601f19603f3d011682016040523d82523d6000602084013e612019565b606091505b509150915061204182826040518060600160405280602781526020016132746027913961204b565b9250505092915050565b6060831561205b578290506120ab565b60008351111561206e5782518084602001fd5b816040517f08c379a00000000000000000000000000000000000000000000000000000000081526004016120a29190612742565b60405180910390fd5b9392505050565b8280546120be90612b99565b90600052602060002090601f0160209004810192826120e05760008555612127565b82601f106120f957805160ff1916838001178555612127565b82800160010185558215612127579182015b8281111561212657825182559160200191906001019061210b565b5b5090506121349190612138565b5090565b5b80821115612151576000816000905550600101612139565b5090565b600061216861216384612a3f565b612a1a565b90508281526020810184848401111561218057600080fd5b61218b848285612b57565b509392505050565b6000813590506121a28161322e565b92915050565b6000815190506121b781613245565b92915050565b600082601f8301126121ce57600080fd5b81356121de848260208601612155565b91505092915050565b6000813590506121f68161325c565b92915050565b60006020828403121561220e57600080fd5b600061221c84828501612193565b91505092915050565b6000806040838503121561223857600080fd5b600061224685828601612193565b925050602061225785828601612193565b9150509250929050565b60008060006060848603121561227657600080fd5b600061228486828701612193565b935050602061229586828701612193565b92505060406122a6868287016121e7565b9150509250925092565b600080604083850312156122c357600080fd5b60006122d185828601612193565b925050602083013567ffffffffffffffff8111156122ee57600080fd5b6122fa858286016121bd565b9150509250929050565b6000806040838503121561231757600080fd5b600061232585828601612193565b9250506020612336858286016121e7565b9150509250929050565b60006020828403121561235257600080fd5b6000612360848285016121a8565b91505092915050565b61237281612af8565b82525050565b61238181612b0a565b82525050565b61239081612b16565b82525050565b60006123a182612a70565b6123ab8185612a86565b93506123bb818560208601612b66565b80840191505092915050565b60006123d282612a7b565b6123dc8185612a91565b93506123ec818560208601612b66565b6123f581612c89565b840191505092915050565b600061240d602383612a91565b915061241882612c9a565b604082019050919050565b6000612430602683612a91565b915061243b82612ce9565b604082019050919050565b6000612453602283612a91565b915061245e82612d38565b604082019050919050565b6000612476601f83612a91565b915061248182612d87565b602082019050919050565b6000612499602c83612a91565b91506124a482612db0565b604082019050919050565b60006124bc601d83612a91565b91506124c782612dff565b602082019050919050565b60006124df602683612a91565b91506124ea82612e28565b604082019050919050565b6000612502602c83612a91565b915061250d82612e77565b604082019050919050565b6000612525603883612a91565b915061253082612ec6565b604082019050919050565b6000612548602983612a91565b915061255382612f15565b604082019050919050565b600061256b602e83612a91565b915061257682612f64565b604082019050919050565b600061258e602e83612a91565b915061259982612fb3565b604082019050919050565b60006125b1602d83612a91565b91506125bc82613002565b604082019050919050565b60006125d4602083612a91565b91506125df82613051565b602082019050919050565b60006125f7602683612a91565b91506126028261307a565b604082019050919050565b600061261a602583612a91565b9150612625826130c9565b604082019050919050565b600061263d602483612a91565b915061264882613118565b604082019050919050565b6000612660602b83612a91565b915061266b82613167565b604082019050919050565b6000612683602583612a91565b915061268e826131b6565b604082019050919050565b60006126a6601f83612a91565b91506126b182613205565b602082019050919050565b6126c581612b40565b82525050565b6126d481612b4a565b82525050565b60006126e68284612396565b915081905092915050565b60006020820190506127066000830184612369565b92915050565b60006020820190506127216000830184612378565b92915050565b600060208201905061273c6000830184612387565b92915050565b6000602082019050818103600083015261275c81846123c7565b905092915050565b6000602082019050818103600083015261277d81612400565b9050919050565b6000602082019050818103600083015261279d81612423565b9050919050565b600060208201905081810360008301526127bd81612446565b9050919050565b600060208201905081810360008301526127dd81612469565b9050919050565b600060208201905081810360008301526127fd8161248c565b9050919050565b6000602082019050818103600083015261281d816124af565b9050919050565b6000602082019050818103600083015261283d816124d2565b9050919050565b6000602082019050818103600083015261285d816124f5565b9050919050565b6000602082019050818103600083015261287d81612518565b9050919050565b6000602082019050818103600083015261289d8161253b565b9050919050565b600060208201905081810360008301526128bd8161255e565b9050919050565b600060208201905081810360008301526128dd81612581565b9050919050565b600060208201905081810360008301526128fd816125a4565b9050919050565b6000602082019050818103600083015261291d816125c7565b9050919050565b6000602082019050818103600083015261293d816125ea565b9050919050565b6000602082019050818103600083015261295d8161260d565b9050919050565b6000602082019050818103600083015261297d81612630565b9050919050565b6000602082019050818103600083015261299d81612653565b9050919050565b600060208201905081810360008301526129bd81612676565b9050919050565b600060208201905081810360008301526129dd81612699565b9050919050565b60006020820190506129f960008301846126bc565b92915050565b6000602082019050612a1460008301846126cb565b92915050565b6000612a24612a35565b9050612a308282612bcb565b919050565b6000604051905090565b600067ffffffffffffffff821115612a5a57612a59612c5a565b5b612a6382612c89565b9050602081019050919050565b600081519050919050565b600081519050919050565b600081905092915050565b600082825260208201905092915050565b6000612aad82612b40565b9150612ab883612b40565b9250827fffffffffffffffffffffffffffffffffffffffffffffffffffffffffffffffff03821115612aed57612aec612bfc565b5b828201905092915050565b6000612b0382612b20565b9050919050565b60008115159050919050565b6000819050919050565b600073ffffffffffffffffffffffffffffffffffffffff82169050919050565b6000819050919050565b600060ff82169050919050565b82818337600083830152505050565b60005b83811015612b84578082015181840152602081019050612b69565b83811115612b93576000848401525b50505050565b60006002820490506001821680612bb157607f821691505b60208210811415612bc557612bc4612c2b565b5b50919050565b612bd482612c89565b810181811067ffffffffffffffff82111715612bf357612bf2612c5a565b5b80604052505050565b7f4e487b7100000000000000000000000000000000000000000000000000000000600052601160045260246000fd5b7f4e487b7100000000000000000000000000000000000000000000000000000000600052602260045260246000fd5b7f4e487b7100000000000000000000000000000000000000000000000000000000600052604160045260246000fd5b6000601f19601f8301169050919050565b7f45524332303a207472616e7366657220746f20746865207a65726f206164647260008201527f6573730000000000000000000000000000000000000000000000000000000000602082015250565b7f4f776e61626c653a206e6577206f776e657220697320746865207a65726f206160008201527f6464726573730000000000000000000000000000000000000000000000000000602082015250565b7f45524332303a20617070726f766520746f20746865207a65726f20616464726560008201527f7373000000000000000000000000000000000000000000000000000000000000602082015250565b7f5265737472696374656420746f207374616b696e6720636f6e74726163742e00600082015250565b7f46756e6374696f6e206d7573742062652063616c6c6564207468726f7567682060008201527f64656c656761746563616c6c0000000000000000000000000000000000000000602082015250565b7f45524332303a20696e73756666696369656e7420616c6c6f77616e6365000000600082015250565b7f45524332303a207472616e7366657220616d6f756e742065786365656473206260008201527f616c616e63650000000000000000000000000000000000000000000000000000602082015250565b7f46756e6374696f6e206d7573742062652063616c6c6564207468726f7567682060008201527f6163746976652070726f78790000000000000000000000000000000000000000602082015250565b7f555550535570677261646561626c653a206d757374206e6f742062652063616c60008201527f6c6564207468726f7567682064656c656761746563616c6c0000000000000000602082015250565b7f45524331393637557067726164653a20756e737570706f727465642070726f7860008201527f6961626c65555549440000000000000000000000000000000000000000000000602082015250565b7f496e697469616c697a61626c653a20636f6e747261637420697320616c72656160008201527f647920696e697469616c697a6564000000000000000000000000000000000000602082015250565b7f45524331393637557067726164653a206e657720696d706c656d656e7461746960008201527f6f6e206973206e6f742055555053000000000000000000000000000000000000602082015250565b7f455243313936373a206e657720696d706c656d656e746174696f6e206973206e60008201527f6f74206120636f6e747261637400000000000000000000000000000000000000602082015250565b7f4f776e61626c653a2063616c6c6572206973206e6f7420746865206f776e6572600082015250565b7f416464726573733a2064656c65676174652063616c6c20746f206e6f6e2d636f60008201527f6e74726163740000000000000000000000000000000000000000000000000000602082015250565b7f45524332303a207472616e736665722066726f6d20746865207a65726f20616460008201527f6472657373000000000000000000000000000000000000000000000000000000602082015250565b7f45524332303a20617070726f76652066726f6d20746865207a65726f2061646460008201527f7265737300000000000000000000000000000000000000000000000000000000602082015250565b7f496e697469616c697a61626c653a20636f6e7472616374206973206e6f74206960008201527f6e697469616c697a696e67000000000000000000000000000000000000000000602082015250565b7f45524332303a2064656372656173656420616c6c6f77616e63652062656c6f7760008201527f207a65726f000000000000000000000000000000000000000000000000000000602082015250565b7f45524332303a206d696e7420746f20746865207a65726f206164647265737300600082015250565b61323781612af8565b811461324257600080fd5b50565b61324e81612b16565b811461325957600080fd5b50565b61326581612b40565b811461327057600080fd5b5056fe416464726573733a206c6f772d6c6576656c2064656c65676174652063616c6c206661696c6564a2646970667358221220a91fb4527b2dc534180e5203eeac44a60617c80981c01c76cb204d543839918f64736f6c63430008020033",
  "linkReferences": {},
  "deployedLinkReferences": {}
}